:020000040800F2
:10000000802000200101000883290008352600080F
:100010008129000813020008494E00080000000072
:10002000000000000000000000000000F92C0008A3
:10003000DF04000800000000992C0008492D00088A
:100040001B0100081B0100081B0100081B01000820
:100050001B0100081B0100081B0100081B01000810
:100060001B0100081B0100081B0100081B01000800
:100070001B0100081B0100089D040008A9040008DA
:100080001B0100081B0100081B0100081B010008E0
:10009000914B00081B0100081B0100081B01000810
:1000A0001B010008E92D00081B0100081B010008C6
:1000B0001B010008F52D00081B0100081B010008AA
:1000C0001B0100081B0100081B0100081B010008A0
:1000D0001B010008DD3300081B0100081B0100089C
:1000E0001B0100081B0100081B010008DFF80CD0F1
:1000F00000F052F8004800477550000880200020AA
:100100000648804706480047FEE7FEE7FEE7FEE7B1
:10011000FEE7FEE7FEE7FEE7FEE7FEE7C32D000889
:10012000ED00000840EA01039B0703D009E008C97D
:10013000121F08C0042AFAD203E011F8013B00F8AC
:10014000013B521EF9D27047D2B201E000F8012BF8
:10015000491EFBD270470022F6E710B513460A4647
:1001600004461946FFF7F0FF204610BD30B50B4698
:10017000014600202022012409E021FA02F59D42D7
:1001800005D303FA02F5491B04FA02F52844151EAB
:10019000A2F10102F1DC30BD064C074D06E0E0683B
:1001A00040F0010394E8070098471034AC42F6D3BE
:1001B000FFF7A0FF7C5100089C51000870B58C1817
:1001C00010F8015B15F0070301D110F8013B2A116B
:1001D00006D110F8012B03E010F8016B01F8016B58
:1001E0005B1EF9D12B0705D40023521E0DD401F854
:1001F000013BFAE710F8013BCB1A921C03E013F81D
:10020000015B01F8015B521EF9D5A142D8D3002051
:1002100070BDFEE7002070470020704710B504F065
:1002200015FE002010BD10B5096802F037FD002052
:1002300010BD0000094A10B5D2F8B822D2F8142235
:100240000AB1012010BD0A460146044803F0C4F972
:10025000BDE81040014803F01DBA0000B00E0020B8
:1002600070B50025134C17E0D4F8200204EB800091
:10027000D0F80022D4F8200204EB8011012004F011
:10028000C5FCD4F82002072811D0D4F82002401C65
:10029000C4F82002C4F82852D4F828020128E3D078
:1002A000D4F82002D4F824128842DDD170BDC4F8FD
:1002B0002052EFE7540A002010B5184CD4F854042B
:1002C000012802D116A004F0EFFDD4F8540401284F
:1002D00005D0D4F84C04D4F8501488421AD0D4F87D
:1002E0004C0404EB8000D0F82C14D4F84C0404EB3C
:1002F000801000F50B7002F000FDD4F84C140020C3
:10030000072908D0D4F84C14491CC4F84C1400BF79
:10031000C4F8540410BDC4F84C04F9E7540A002092
:1003200055617274205478206F766572666C6F77B1
:10033000210A00002DE9F04100252E46DFF87C80DF
:100340001F4F32E0C5EB051000EB800108EBC10444
:10035000D4F8280101281DD11AA004F0A5FD19E048
:10036000D4F8200104EB8000D0F81011D4F820015B
:10037000D4F82C2100EB801020440C309047D4F8A6
:100380002001032816D0D4F82001401CC4F8200115
:10039000C4F82861D4F828010128E1D0D4F820015C
:1003A000D4F824118842DBD16D1C38788542C9DB32
:1003B000BDE8F081C4F82061EAE700004C030020AA
:1003C0000400002055617274205278206F766572A7
:1003D000666C6F77210A00002DE9F0470025A946D9
:1003E000DFF89080244F3EE0C5EB051000EB80065F
:1003F00008EBC604D4F85012012904D0D4F84C02FA
:10040000012804D006E01DA004F04EFD2AE01EA045
:1004100004F04AFDD4F84C12012905D0D4F8441256
:10042000D4F8482291421DD0D4F8441204EB810143
:10043000B1F83422D4F8441292B201EB8111214474
:1004400058F8360001F5987102F0B2F8D4F8440279
:1004500003280DD0D4F8440210F10100C4F844027E
:10046000C4F84C926D1C38788542BDDBBDE8F0873E
:100470004846F3E74C030020040000205541525445
:100480002042555359000000556172742054782061
:100490006F766572666C6F77210A0000014800F084
:1004A00091B8000008030020014800F08BB800005C
:1004B000C402002030B590F840500124AC40C56B18
:1004C0006C60046863604368102B036803D0996014
:1004D0000068C26030BD9A600068C16030BD70477E
:1004E00072B6FEE710B590F821100022022905D05F
:1004F0000421816380F82020012010BD01680B6871
:1005000023F00E030B6001680B6823F001030B60FE
:1005100090F84030C46B012101FA03F3636080F866
:10052000211080F82020104610BD000010B590F872
:1005300021100024022903D00421816301243DE01D
:1005400001680A6822F00E020A6001680A6822F057
:1005500001020A601A4A0168914201D1012121E099
:10056000174A1432914201D110211BE0144A28325B
:10057000914201D1891515E0114A3C32914201D1D5
:1005800089140FE00E4A5032914202D14FF480316B
:1005900008E00B4A6432914202D14FF4801101E02D
:1005A0004FF08071064A083A5160012180F821100D
:1005B000002180F82010416B01B18847204610BD12
:1005C000080002402DE9F05FC16B0C6801680B6800
:1005D000D0F840C0042202FA0CF2494DDFF824A101
:1005E000494E4A4FDFF828B1DFF828E122422CD0EB
:1005F0005A072AD50A68920603D40A6822F0040230
:100600000A600168A94201D1042219E0514501D1D3
:10061000402215E0B14202D14FF4806210E0B942AD
:1006200002D14FF480420BE0594502D14FF48022B1
:1006300006E0714502D14FF4800201E04FF0806284
:100640002F4908394A60C16A3BE04FF0020808FAB6
:100650000CF818EA040F4FF000094FF0010235D0F2
:100660005FEA837832D50B689B0605D40B6823F0CC
:100670000A030B6080F821200168A94201D10222FF
:1006800019E0514501D1202215E0B14202D14FF4C9
:10069000007210E0B94202D14FF400520BE059450C
:1006A00002D14FF4003206E0714502D14FF400123E
:1006B00001E04FF00072124908394A6080F820903A
:1006C000816A00291AD0BDE8F05F0847082505FABD
:1006D0000CF5254212D01B0710D50B6823F00E0332
:1006E0000B6090F84010C36B02FA01F1596082630D
:1006F00080F8212080F82090016BE2E7BDE8F09FB0
:10070000080002401C000240300002404400024049
:10071000580002406C00024030B528B308C81349A5
:1007200014221944B1FBF2F18900C16310498163BD
:10073000022141771A6843F6F0718A43D0E9001428
:100740002143D0E902452C432143046921434469F4
:10075000214384692143114319600021416301222F
:1007600042770177084630BD012030BDF8FFFDBF5C
:100770000000024070B5044690F8200000250128D2
:100780000CD0012084F8200094F821600020012E74
:1007900006D084F820000225284670BD022070BDD6
:1007A000022684F82160A0632068066826F001060E
:1007B00006602046FFF77EFEE06A00282068016898
:1007C00002D041F00E0106E021F004010160206832
:1007D000016841F00A0101602068016841F00101EF
:1007E0000160D9E72DE9F84FDFF8B891002409F14D
:1007F000040A0AF1040B23460F270BF1040EC9E08B
:100800000125A5402A40AA427DD1674ED1F804C0F7
:10081000ACEB0608B44532D014DCBCF1030F3AD07F
:1008200009DCBCF1000F2AD0BCF1010F1CD0BCF1D7
:10083000020F31D11DE0BCF1110F17D0BCF1120F26
:100840002AD119E0B8F5881F19D006DCB8F5803F29
:1008500015D0B8F5801F1FD111E0B8F5001F0ED0DC
:10086000B8F5041F18D10AE0CB6815E0CB681B1D52
:1008700012E0CB6808330FE0CB680C330CE08B68D8
:100880002BB1012B4FF0080303D0456104E0042392
:1008900002E0056100E00023FF2A01D8064601E0DE
:1008A00000F104064FEA840501D9A5F12005D6F828
:1008B000008007FA05FC28EA0C0803FA05F548EA67
:1008C0000508C6F800804D68ED0062D5374DAE6969
:1008D00046F00106AE61AD6924F0030605F001059E
:1008E0000095334D06EB050CDCF80850A607360FD3
:1008F00007FA06F825EA0805DFF8B880404503D175
:100900004FF0000817E044E0DFF8AC80404502D12A
:100910004FF001080FE0DFF8A480404502D14FF00E
:10092000020808E0DFF89880404502D14FF0030844
:1009300001E04FF0040808FA06F848EA0508CCF888
:1009400008804D68D9F80060ED034D4601D5164387
:1009500000E096432E604D68DAF80060AD0355461E
:1009600001D5164300E096432E604D68DBF8006029
:10097000ED025D4601D5164300E096432E604D68BA
:10098000DEF80060AD02754601D5164300E09643DF
:100990002E60641C0D682A46E5407FF431AFBDE847
:1009A000F88F000000040140000011100010024008
:1009B0000000014000080140000C0140001001400F
:1009C000001401400AB1016170470904FBE700000F
:1009D00001488068704700002000002002488168BC
:1009E000027811448160704720000020074810B54C
:1009F000016841F010010160032000F075F80F203C
:100A000000F006F800F024F8002010BD002002409D
:100A100070B50D4D04464FF47A712878B1FBF0F0B3
:100A20000A490968B1FBF0F001F030F848B9102C20
:100A300007D200222146501E00F036F800206C60DC
:100A400070BD012070BD0000200000202C0000209F
:100A50000C4808B5816941F001018161816901F0AB
:100A600001010091C16941F08051C161C06900F08C
:100A7000805000900448416821F0E06141F000712D
:100A8000416008BD0010024000000140002809DB61
:100A900000F01F02012191404009800000F1E02098
:100AA000C0F8001170470000F0B40E4B1B680C46F4
:100AB000C3F30223C3F10705042D00D90425191D32
:100AC000072901D2002300E0DB1E012606FA05F10A
:100AD000491E214099409E40761E16403143F0BC8D
:100AE00004F0F2B90CED00E0064900F007020868D6
:100AF0004FF6FF03184040EA0220034A1043086003
:100B0000704700000CED00E00000FA0510B50C067F
:100B100007D501F0070101EB810100EBC10028308E
:100B200005E001EB810100EBC10000F5B47099B262
:100B300032B1012202730181190C4181002010BDE4
:100B400000220273C180F9E7704701EB810200EBDC
:100B5000C202D0F8E802D26B02F04BBF01EB810277
:100B600000EBC202D0F8E802D2F87C2102F0A4BF68
:100B700070B504460B0601F0070000EB800104EBA2
:100B8000C1014FF001024FF0000503D581F8292083
:100B9000283103E081F8695101F5B471087094F8C7
:100BA000A802012808D084F8A822206803F0EEFBF0
:100BB00084F8A852002070BD022070BD70B50446B4
:100BC00001F00F006268904201D9012070BD0B0650
:100BD00001F0070000EB800104EBC1014FF00102BE
:100BE0004FF0000503D581F82920283103E081F872
:100BF000695101F5B4718D70087094F8A80201284C
:100C000008D084F8A822206803F05DFC84F8A8527C
:100C1000002070BD022070BD2DE9F05F04685FEA1E
:100C2000424C0B788D69B4F850C04FF000064BF67B
:100C30008F7948F2800A48F68F7B48F2C00E4FF455
:100C400080672AD54FF0020808EBC308C44407EBBD
:100C50004C07E45BC4F30904A54203D32D1B8D614B
:100C600001D00BE08E61066836F8235005EA0905CD
:100C700085F4005545EA0A0526F82350520609D5A1
:100C80000D78036833F8252002EA0B0242EA0E02CF
:100C900023F8252084B30A8929E04FF0060808EBE1
:100CA000C308C44407EB4C07E45BC4F30904A54242
:100CB00003D32D1B8D6101D00BE08E61066836F8E1
:100CC000235005EA090585F4005545EA0A0526F88A
:100CD0002350520609D40B78056835F8232002EA20
:100CE0000B0242EA0E0225F823202CB14A894969F9
:100CF0000068234603F056FF2046BDE8F09F2DE92B
:100D0000F05F054600680C465FEA426C16468B6948
:100D10002278B0F850C048F68F774CF280094FF631
:100D2000FF7B4FF4004E4FF4806A4FF000017BD5FB
:100D30004FF0020808EBC208E0440AEB480C30F818
:100D40000C00C0F30900834211D91B1AA3610FD014
:100D5000730407D52E6836F822303B4043EA090376
:100D600026F8223094F82420012A50D04EE1A161C7
:100D7000607810B1012813D01AE02868B0F850301C
:100D8000184400EB0210B0F8042422F4F842A0F852
:100D90000424B0F8042442F40042A0F8042407E03C
:100DA0002868B0F85030184400EB0210A0F8041482
:100DB0006278286812B1012A11D018E0B0F85010FA
:100DC0000844217800EB0110B0F80C1421F4F8412C
:100DD000A0F80C14B0F80C1441F4004105E0B0F890
:100DE00050201044227800EB0210A0F80C14217857
:100DF0002846FFF7AAFE7004B8D521782A6832F891
:100E00002100384040EA090022F82100FEE0626932
:100E100002446261E2690244E2612369226A9A4201
:100E200003D31846111A04E038E084F824100AB1FC
:100E300010462162617811B1012923D02BE0296885
:100E4000B1F850201144227801EB021101F2044163
:100E500048B13E280FD84208C30700D0521C0BEA05
:100E600082220A8017E00A8822F4F8420A800A885F
:100E700042F40042F5E74209C30600D1521E4EEA91
:100E80008222EEE72968B1F850201144227801EB64
:100E90000211A1F8040483B22289B3E04FF00608DE
:100EA00008EBC208E0440AEB480C30F80C00C0F331
:100EB0000900834211D31B1AA3610FD0730407D416
:100EC0002E6836F822303B4043EA090326F82230E8
:100ED00094F82420012A50D098E0A161607810B1E4
:100EE000012813D01AE02868B0F85030184400EBFD
:100EF0000210B0F8042422F4F842A0F80424B0F858
:100F0000042442F40042A0F8042407E02868B0F862
:100F10005030184400EB0210A0F8041462782868DE
:100F200012B1012A11D018E0B0F85010084421780D
:100F300000EB0110B0F80C1421F4F841A0F80C14E7
:100F4000B0F80C1441F4004105E0B0F85020104412
:100F5000227800EB0210A0F80C1421782846FFF745
:100F6000F4FD700452D42278296831F82200384008
:100F700040EA090021F8220048E062690244626107
:100F8000E2690244E2612369226A9A4203D3184665
:100F9000111A216204E00AB11046216284F824107B
:100FA0006278296812B1012A22D029E0B1F85020D4
:100FB0001144227801EB021101F20C4148B13E28A4
:100FC0000FD84208C30700D0521C0BEA82220A80C5
:100FD00016E00A8822F4F8420A800A8842F40042A5
:100FE000F5E74209C30600D1521E4EEA8222EEE71F
:100FF000B1F850201144227801EB0211A1F80C0441
:10100000628983B26169286803F0EAFD21782A6861
:1010100032F8210048F6BF73184080F0300048F2E3
:101020008003184322F821000020BDE8F09F01F062
:10103000070101EB810100EBC100D0F8840170478A
:101040002DE9F04104460F0601F0070000EB800196
:1010500004EBC1014FF001064FF0000503D581F804
:101060002960283103E081F8695101F5B4710870F5
:101070000A61CB704A7802B1C881022B00D10D7190
:1010800094F8A802012809D084F8A862206803F027
:101090004FF8284684F8A852BDE8F0810220FBE70B
:1010A00070B50C4601F0070505EB850100EBC101A9
:1010B000C1E95F230022C1F8842181F8692181F808
:1010C000685101F5B4716207006803F051FA00201D
:1010D00070BD70B504460D4601F007006168884296
:1010E00001D9012070BD29064FF000064FF0010222
:1010F00007D500EB800104EBC10181F829202831DC
:1011000007E005EB850104EBC10181F8696101F598
:10111000B4718A70087094F8A802012807D084F886
:10112000A822206803F00BFA680702D006E002202C
:1011300070BD04F52C71206803F0C3F984F8A8622F
:10114000002070BD70B50C4601F0070505EB850168
:1011500000EBC101C1E90F23012281F84C208B640F
:1011600000234B6481F8292001F8285F620700689A
:1011700003F0FEF9002070BD1FB50446006803F0BF
:101180000DFD000402D5204601F0FCFB206803F0B1
:1011900005FD40050CD5206830F8441F21F480611E
:1011A0000180204600F01EF90021204600F035F9AC
:1011B000206803F0F3FC400405D5206830F8441F94
:1011C00021F480410180206803F0E8FC800405D50B
:1011D000206830F8441F21F400510180206803F09A
:1011E000DDFCC00414D5206830F8401F21F0040154
:1011F0000180206830F8401F21F00801018020465E
:1012000000F003F9206830F8441F21F48051018078
:10121000206803F0C3FC00053ED522680020694623
:1012200032F8203021F81030401CC0B20828F7D323
:1012300032F8400F40F001001080206830F8402F55
:1012400022F0010202802068B0F844205205FBD54C
:1012500030F8442F22F4806202800020236831F8A5
:10126000102023F82020401CC0B20828F6D32068A4
:1012700030F8401F41F008010180206830F8441F19
:1012800021F400610180206830F8401F41F0040122
:101290000180204600F0F6F8206803F07FFC80050E
:1012A00008D5206830F8441F21F4007101802046E1
:1012B00000F0AFF8206803F071FCC00505D5206888
:1012C00030F8441F21F4807101801FBD2DE9F041E9
:1012D00086B0040004D094F8A902002520B108E0EB
:1012E000012006B0BDE8F08184F8A852204600F045
:1012F0005BF8032084F8A902206803F0DBF804F10E
:101300001001142288466846FEF70CFF94E80F008F
:1013100003F03AF80226D0BB0021206803F058FC05
:10132000002001270FE000BF00EB800104EBC101AA
:1013300081F8297001F8280FC881CD700D614D61C9
:10134000401CC0B28D6161688142EDD8002011E07F
:1013500000EB800104EBC10181F8695181F868015B
:1013600081F86B51C1F87851C1F87C51401CC0B272
:10137000C1F8805161688142EAD81422414668462A
:10138000FEF7D0FE94E80F0003F08BF810B184F85C
:10139000A962A5E784F8245084F8A972206803F0B4
:1013A0007EF800209DE7000008B500680B498842E0
:1013B00012D10B48C16941F40001C161C06900222A
:1013C00000F40000009011461420FFF76DFBBDE80B
:1013D00008401420FFF75ABB08BD0000005C004025
:1013E0000010024070B5044680680125022801D033
:1013F000FFF776F82946D4F8E80202F046FCD4F864
:10140000E802BDE8704002F002BCD0F8E80202F049
:1014100026BCD0F8E80202F02CBC10B5044690F8C7
:10142000A80201280BD0012084F8A80284F8241017
:10143000206803F0CFFB002084F8A80210BD022032
:1014400010BDD0F8E82200F52C71104602F029BC3E
:1014500010B5044690F8A802012810D0012084F8A5
:10146000A802206803F08AFB01212046FFF76CFBED
:10147000206803F012F8002084F8A80210BD0220B2
:1014800010BD000010B50446D0F8E80202F048FC98
:10149000A069002804D00348016841F006010160FA
:1014A00010BD000010ED00E02DE9F843054600787E
:1014B000354CC00754D0E0690026C00008D4E0696C
:1014C00040F08050E061E069012600F0805000901B
:1014D0002E480168C90512D40168804641F4807124
:1014E0000160FFF775FA074605E000BFFFF770FAE5
:1014F000C01B642823D8D8F80000C005F6D5206AA0
:1015000010F4407021D0A98801F4407181421CD0B0
:10151000206A1F49012220F440700A6000220A60FC
:101520002062C00711D0FFF753FA074641F288380E
:1015300008E000BFFFF74CFAC11B414502D9032068
:10154000BDE8F883206A8007F4D5206A696820F432
:101550004070084320621EB1E06920F08050E061D5
:101560002878800705D56068A96820F440400843C2
:1015700060602878C00605D56068E96820F48000BE
:10158000084360600020DBE700100240007000406C
:10159000400442422DE9F0470F46050061D0434E1A
:1015A000306800F00700B84209D2306820F0070028
:1015B00038433060306800F00700B84251D12868E5
:1015C0003B4C810712D5400703D5606840F4E060CA
:1015D00060602878000703D5606840F46050606060
:1015E0006068A96820F0F000084360602878C007B0
:1015F00028D06868012810D02168022810D08907F7
:1016000000292EDA616821F0030101436160FFF7D0
:10161000DFF9804641F288390DE021688903EFE760
:101620008901EDE7FFF7D4F9A0EB0801494502D99C
:101630000320BDE8F0876068696800F00C00B0EB3B
:10164000810FEFD1306800F00700B8420BD9306845
:1016500020F0070038433060306800F00700B842DF
:1016600001D00120E5E72878400705D56068E968E2
:1016700020F4E060084360602878000706D56068C1
:10168000296920F4605040EAC100606000F038F839
:101690006168084AC1F30311515CC84006490860FB
:1016A00006480068FFF7B4F90020C2E700200240B6
:1016B00000100240645100082C000020240000208B
:1016C0000448054900684968044AC1F30221515C95
:1016D000C84070472C0000200010024074510008E0
:1016E0000448054900684968044AC1F3C221515CB5
:1016F000C84070472C0000200010024074510008C0
:1017000012A185B00FC98DE80F0014A0144A00681B
:1017100004905168134801F00C03042B10D0082BDF
:101720000ED1C1F38343C9031DF803000AD55168E4
:1017300004AAC1F34041515C0A4A5043B0FBF1F0A6
:1017400005B0704708494843FAE700000203040562
:10175000060708090A0B0C0D0E0F101001020000FD
:101760000010024000127A0000093D002DE9F84FF8
:10177000040070D02078C04DC00749D06868C0F31D
:101780008100012807D06868C0F38100022809D1D0
:101790006868C00306D52868800339D560680028CA
:1017A000E7D035E06068B0F5803F0BD010B1B0F500
:1017B000A02F11D0286820F480302860286820F4F9
:1017C000802002E0286840F480302860606890B192
:1017D000FFF7FEF806460AE0286840F480202860FB
:1017E000F0E700BFFFF7F4F8801B642873D828687F
:1017F0008003F7D50CE0FFF7EBF8064605E000BFE5
:10180000FFF7E6F8801B6428F0D828688003F7D437
:1018100020789A4E80074FF001094FF0000839D523
:10182000686810F00C0F07D06868C0F381000228C8
:1018300009D16868C00306D42868800714D52069D8
:10184000012808D110E02069B0B1C6F80090FFF778
:10185000BFF8074605E00AE1FFF7BAF8C01B022807
:10186000C4D828688007F7D52868616920F0F80097
:1018700040EAC10028600DE0C6F80080FFF7A8F834
:10188000074604E0FFF7A4F8C01B022823D8286805
:101890008007F7D4207800072CD57948A169D9B101
:1018A000C0F80090FFF794F8074604E0FFF790F8BF
:1018B000C01B02280FD8686A8007F7D571484FF41B
:1018C000FA510068B0FBF1F0009000BF0098411E93
:1018D0000091FAD20EE080E0C0F80080FFF778F8BF
:1018E000074604E0FFF774F8C01B022875D8686A41
:1018F0008007F7D42078400760D5E8690027C0004A
:1019000008D4E86940F08050E861E869012700F0F8
:10191000805000905C480168C90513D40168834673
:1019200041F480710160FFF753F8824606E000BF82
:10193000FFF74EF8A0EB0A0064284ED8DBF8000051
:10194000C005F5D5E06801280AD008B1052813D0F4
:10195000286A20F001002862286A20F0040002E0D2
:10196000286A40F001002862E06841F2883B98B1A3
:10197000FFF72EF882460BE0286A40F00400286248
:10198000EEE700BFFFF724F8A0EB0A0159455AD84B
:10199000286A8007F6D50CE0FFF71AF8824605E0C2
:1019A000FFF716F8A0EB0A0159454CD8286A8007C2
:1019B000F6D41FB1E86920F08050E861E06988B38F
:1019C0006968C1F38101022944D00228C6F8608009
:1019D00004D0FEF7FDFF044638E034E0FEF7F8FFE0
:1019E000074604E0FEF7F4FFC01B02282BD8286846
:1019F0008001F7D4206AB0F5803F05D16868A168FE
:101A000020F4003008436860D4E90801084369689D
:101A100021F4741108436860C6F86090FEF7D8FF9F
:101A2000044606E025E000BFFEF7D2FF001B0228B7
:101A300009D828688001F7D51BE000BFFEF7C8FF72
:101A4000001B022802D90320BDE8F88F2868800116
:101A5000F4D40EE00128F7D06868226A00F48031DF
:101A6000914204D1616A00F47010884201D00120D3
:101A7000EAE70020E8E700000010024000004242D0
:101A8000800442422C0000200070004010B5401E2F
:101A9000B0F1807F01D3012010BD4FF0E0246061E0
:101AA0000F21601703F010FA0020A06107202061C9
:101AB000002010BD7047704770B590F83C20012A97
:101AC00026D0012480F83C40022280F83D200368A3
:101AD0005A689D6822F070060A6832435A600D4BBE
:101AE00002689A4208D0B2F1804F05D00A4B9A4260
:101AF00002D00A4B9A4204D1496825F08003194369
:101B0000916080F83D40002180F83C10084670BD8F
:101B1000022070BD002C014000040040000800407D
:101B200010B5040003D094F83D0010B107E0012087
:101B300010BD002084F83C00204600F01FF8022071
:101B400084F83D00211D206801F05AF9012084F835
:101B5000460084F83E0084F83F0084F8400084F892
:101B6000410084F8420084F8430084F8440084F87B
:101B7000450084F83D00002010BD000008B51A4A59
:101B800001681A4891420ED1816941F40061816176
:101B90008069002200F40060009011461920FEF7D1
:101BA00083FF192013E0B1F1804F14D0104A914205
:101BB00019D1C16941F00201C161C069002200F080
:101BC0000200009011461D20FEF76EFF1D20BDE8AB
:101BD0000840FEF75BBFC16941F00101C161C06906
:101BE00000F00100009008BD002C014000100240F0
:101BF0000004004090F83D10012901D001207047F9
:101C0000022180F83D100168CA6842F00102CA60F2
:101C100000680B49884208D0B0F1804F05D00949CF
:101C2000884202D00849884204D1816801F0070146
:101C3000062903D0016841F00101016000207047CE
:101C4000002C0140000400400008004070B504462C
:101C500090F83C00012817D0012584F83C50022060
:101C600084F83D002068826822F0770222F47F42E7
:101C700082600868502830D00DDC20284DD005DC6B
:101C800098B310283BD148E0022070BD302844D0E2
:101C9000402834D139E0602828D0702806D0B0F52B
:101CA000805F2CD0B0F5005F29D10AE0CB68D1E984
:101CB0000121206801F0DAF82068816841F077019D
:101CC00009E0CB68D1E90121206801F0CFF8206854
:101CD000816841F48041816011E0CA6849682068E8
:101CE00001F078F95021206807E016E0CA684968D9
:101CF000206801F080F96021206801F0C1F884F8C3
:101D00003D50002084F83C0070BDCA6849682068D6
:101D100001F060F940212068EFE722680146104693
:101D2000EBE7704770B50446006801694FF00005A5
:101D3000C943890715D4C168C943890711D4E91E6D
:101D4000016101202077206880698007204602D049
:101D5000FFF7E7FF04E000F0BDF8204600F04CF983
:101D6000257720680169C943490717D4C168C94369
:101D7000490713D46FF00401016102202077206825
:101D8000806910F4407F204602D0FFF7CAFF04E0CC
:101D900000F0A0F8204600F02FF9257720680169AF
:101DA000C943090716D4C168C943090712D46FF0A3
:101DB00008010161042020772068C069800720465F
:101DC00002D0FFF7AEFF04E000F084F8204600F0F8
:101DD00013F9257720680169C943C90617D4C1687A
:101DE000C943C90613D46FF01001016108202077A0
:101DF0002068C06910F4407F204602D0FFF791FFB1
:101E000004E000F067F8204600F0F6F82577206837
:101E10000169C943C90708D1C168C943C90704D1C9
:101E2000891E0161204600F0E9F820680169C94374
:101E3000090609D4C168C943090605D46FF08001B9
:101E400001612046FFF736FE20680169C943490653
:101E500009D4C168C943490605D46FF04001016146
:101E6000204600F0DFF820680169C94389060BD4D9
:101E7000C168C943890607D46FF02001016120467B
:101E8000BDE87040FFF717BE70BD000000B585B01B
:101E9000002100910191029103910068B0F1804FFF
:101EA00011D10A48816941F0040181618069694664
:101EB00000F00400049001200090022001900390A3
:101EC0000348FEF78FFC05B000BD00000010024083
:101ED00000080140704770B5044690F83C000D467C
:101EE00001280AD0012084F83C0042B1042A18D00D
:101EF000082A2AD00C2A4DD139E0022070BD206872
:101F000000F0C6FF2068816941F008018161206806
:101F1000816921F004018161206881692A69114386
:101F200011E0206800F0DCFF2068816941F4006165
:101F300081612068816921F4806181612068816903
:101F40002A6941EA0221816124E0206800F0F4FF5F
:101F50002068C16941F00801C1612068C16921F0B0
:101F60000401C1612068C1692A69114311E0206838
:101F700001F00EF82068C16941F40061C161206878
:101F8000C16921F48061C1612068C1692A6941EA9F
:101F90000221C161002084F83C0070BD10B504002E
:101FA00003D094F83D0010B107E0012010BD0020DF
:101FB00084F83C00204600F01EF8022084F83D0022
:101FC000211D206800F01CFF012084F8460084F8E1
:101FD0003E0084F83F0084F8400084F8410084F813
:101FE000420084F8430084F8440084F8450084F8F3
:101FF0003D00002010BD704770470000054A0121D8
:10200000904201D1044803E0044A904201D10448BF
:1020100001707047A8010020100000203802002045
:10202000080000207047704710B5044600684169F9
:1020300094F83D20C1F3C011212A0BD151B141695F
:1020400021F080014161606B08B1FEF74BFA204638
:1020500001F07EF82068416994F83E20C1F38011B8
:10206000222A0BD151B1416921F040014161A06B9D
:1020700008B1FEF737FA204601F052F8002010BDF3
:102080000168CA6822F49072CA6001684A6922F045
:1020900001024A61202180F83E107047704700001D
:1020A000F8B5026804461068D168536910F00F0F44
:1020B0004FF0000553D003F0010601F49077374349
:1020C0005FD0C20705D0CA0503D5226C42F00102D9
:1020D0002264420705D5DA0703D0226C42F00202DF
:1020E0002264820705D5DA0703D0226C42F004028D
:1020F0002264020707D501F02002324303D0226C8C
:1021000042F008022264226C002A34D0800604D5F2
:10211000880602D5204601F024F820684069216C29
:10212000C0F38010090700D430B3204600F0F8FF58
:102130002068416949061BD5416921F04001416190
:10214000A06BA8B158494163A06BFEF7EFF90028D6
:1021500011D0A06B416B01B0BDE8F0400847830689
:102160000FD58B060DD52046BDE8F84000F0F9BF2D
:102170002046FFF793FFF8BD2046FFF78FFF256449
:10218000F8BD266B2023012E52D1C60650D5CE06AF
:102190004ED5106850680090506940062AD5A16B52
:1021A000086840680004000CEAD0A68D8642E7D992
:1021B000E0858869202818D0D06820F48070D0602D
:1021C0002068416921F0010141612068416921F0E5
:1021D0004001416184F83E3025632068C16821F0E8
:1021E0001001C160A06BFEF77DF9A08DE18D401A52
:1021F00081B219E0A08DE18D401A81B2E08D0028F6
:10220000BED00029BCD0D06820F49070D060206887
:10221000426922F00102426184F83E302563206861
:10222000C26822F01002C2602046FFF7FCFEF8BD33
:1022300005062BD50D0629D594F83D002128F6D1A9
:10224000A068B0F5805F01D12069B0B1206A411C5F
:102250002162216800784860E08C401E0004000C78
:10226000E084E4D12068C16821F08001C160206869
:10227000C16841F04001C160F8BD206A0088C0F328
:1022800008005060206A801C2062E5E74006F3D514
:102290004806F1D5D168204621F04001D16084F88C
:1022A0003D3000F0C5F9F8BD1B30000870B50400E2
:1022B00004D094F83D00002510B106E0012070BD67
:1022C00084F83C50204600F023F8242084F83D0098
:1022D0002068C16821F40051C160204600F09CFFD5
:1022E0002068016921F4904101612068416921F071
:1022F0002A0141612068C16841F40051C160256430
:10230000202084F83D0084F83E00002070BD0000CD
:10231000F0B585B00024064600940194029403941D
:1023200000682D49884254D12C48816941F480418C
:102330008161816901F480410491816941F0040166
:1023400081618069264D00F0040004904FF4007014
:102350000090022001900320039069462846FEF772
:1023600041FA2815CDE90004694628460294FEF793
:1023700039FA1D4D1B488027C5E90004C5E902470D
:102380002C616C61AC612846EC61FEF7C5F908B1BF
:10239000FEF7A6F8B5636E62134D12484435143843
:1023A00001C5102091C5104845F8104944306C61B2
:1023B000AC61EC61FEF7B0F908B1FEF791F8756316
:1023C0000022114625206E62FEF76EFB2520FEF7E7
:1023D0005DFB05B0F0BD0000003801400010024078
:1023E0000008014058000240C402002090F83E302E
:1023F000202B0ED159B152B190F83C30012B08D0AE
:10240000012380F83C300023036300F061BF01200A
:1024100070470220704790F83E30202B0ED159B102
:1024200052B190F83C30012B08D0012380F83C30A9
:102430000023036300F084BF01207047022070472F
:1024400010B500682749884201D1012008E02649DB
:10245000884201D1022003E02449884240D1032070
:10246000234900EB400001EBC00050F8180C002895
:1024700036D04021401EC0EB001000EB80021D480A
:1024800000EBC204D4F8243104EB8303C3F8101129
:10249000D4F82411032916D0D4F8241111F1010124
:1024A000C4F8241161680029D4F8241150F83200CE
:1024B00001EB811121444FF0400201F10C0104D0E5
:1024C000FFF794FF03E00021EAE7FFF7A4FFD4F849
:1024D0002401D4F82011884202D10120C4F8280137
:1024E00010BD00000038014000440040004800409A
:1024F000A45000084C030020704700002DE9F84369
:10250000044690F83D001F4616460D4620284CD143
:10251000C5B1BEB194F83C00012846D0012084F832
:102520003C004FF00008C4F84080212084F83D00B2
:10253000FEF74EFAA6848146E684A068B0F5805F77
:1025400003D004E00120BDE8F883206928B12E46BD
:102550005FF0000584F83C800EE00026FAE7802159
:10256000204600F008FFA0B9AEB116F8010B2168B3
:102570004860E08C401EE084E08C4B464FF0000247
:1025800000970028EBD14FF04001204600F0F3FE09
:1025900030B10320D7E735F8020BC0F30800E6E7B7
:1025A000202084F83D000020CDE70220CBE700008A
:1025B00070B5044690F83D00202830D169B362B36D
:1025C00094F83C0001282AD0012084F83C002162C4
:1025D000A284E28400252564212084F83D00636BF9
:1025E00010489862636B1048D862636B0F48186399
:1025F000606B134645632668606B321DFEF7BAF8C0
:1026000021686FF04000086084F83C502068416900
:1026100041F080014161002070BD012070BD0220A9
:1026200070BD0000E9300008173100082B300008A9
:1026300070477047FEE70000F0B500230A243025FC
:1026400037261F4611E000BFB4EB107F02D905EB1F
:10265000107C01E006EB107C01F813C001EB430C89
:1026600000015B1C8CF80170DBB29342ECD3F0BD2F
:102670000D4808B5416941F00101416140690022FE
:1026800000F00100009011460E20FEF70DFA0E201A
:10269000FEF7FCF9002211460F20FEF705FABDE80F
:1026A00008400F20FEF7F2B9001002402DE9F0417A
:1026B00086B0002431480094019402940394816907
:1026C00041F010018161816901F01001049181697B
:1026D00041F020018161816901F02001049181694B
:1026E00041F004018161816901F004010491816973
:1026F00041F0080181618069214E00F008004FF42B
:10270000F8770490002239463046FEF75BF9DFF88F
:10271000748000224FF607414046FEF753F901222C
:102720004FF47E714046FEF74DF9174D7014CDE918
:102730000005694602941548FEF754F848F20E0069
:10274000CDE90005694602943046FEF74BF80125B5
:10275000CDE900750227CDE9024769463046FEF70C
:1027600041F84FF6FF70CDE90005CDE90247694613
:102770004046FEF737F806B0BDE8F0810010024091
:1027800000080140000C0140000011100010014041
:1027900010B586B000241748009401940294039465
:1027A00004941349059401604721C0E9011440F2E3
:1027B000E731C0E9031444618461FFF7B1F908B15E
:1027C000FDF78EFE4FF48050009069460948FFF7F0
:1027D0003DFA08B1FDF784FE049404A90548059468
:1027E000FFF76AF9002801D0FDF77AFE06B010BDA8
:1027F000002C0140A801002010B58EB000240794E1
:10280000089409940A940B941C2168460C94FDF7D3
:10281000A2FC1E484FF0804101600521C0E901146F
:10282000C460802104618161FFF77AF908B1FDF786
:1028300057FE4FF48050079007A91448FFF706FA97
:1028400008B1FDF74DFE1148FFF7A8FB08B1FDF7F1
:1028500047FE0B940BA90D480C94FFF72DF908B116
:10286000FDF73EFE6020009040F22B20CDE90104F0
:102870000022694605480494FFF72DFB08B1FDF7D7
:102880002FFE0248FFF702FB0EB010BDF001002042
:1028900010B586B000241648009401940294039465
:1028A000049412490594016041F61F41C0E90114E6
:1028B000C46004618461FFF733F908B1FDF710FECD
:1028C0004FF48050009069460948FFF7BFF908B1FE
:1028D000FDF706FE049404A905480594FFF7ECF8FB
:1028E000002801D0FDF7FCFD06B010BD000400403B
:1028F000380200200C4810B50A4901604FF4E1315C
:102900004160002181600C22C160C0E90412816134
:10291000C161FFF7CBFC002803D0BDE81040FDF7F4
:10292000DFBD10BD003801408002002010B500223C
:102930000F49104801F036F808B1FDF7D1FD0E49F6
:102940000C4801F013FA08B1FDF7CAFD0B4909481C
:1029500000F034FE08B1FDF7C3FD064801F05CFA53
:10296000002803D0BDE81040FDF7BABD10BD00003F
:1029700030000020B00E00206C01002080000020FC
:10298000FEE7FEE72DE9F84F044640F68F7B48F658
:102990000F7A4FF002094FF4806874E1B0F84410E8
:1029A00011F00F063AD030F8267039047DD530F892
:1029B000261001EA0B0141F0800120F8261006EBF9
:1029C000860004EBC00595F8740105F5B475002880
:1029D0006CD0E87802286AD02878226832F8201073
:1029E00048F68F73194048F2C003194322F82010AB
:1029F0002878D4F800C03CF82010BCF850204904D6
:102A00007ED509EBC000111808EB41003CF800002E
:102A10008005800D009074D02A89D8E0C9062DD495
:102A2000018801EA0A0141F400410180216804F1B2
:102A30002805B1F850202B7809EBC300024408EBBD
:102A40004200085AC0F309006064E16B0844E06387
:102A500000212046FEF779F894F8240000289CD045
:102A6000A869002899D194F82400216840F08000DA
:102A7000A1F84C00002084F8240004E1018804F54A
:102A8000B4750A0521D5B0F850202B78062101EB4A
:102A9000C3010A4408EB4201405A04F52C71C0F30B
:102AA0000903EB61EA88206802E0ACE068E07AE0C4
:102AB00002F078F82168088800EA0B0040F08000F6
:102AC00008802046FEF7BDFCDDE00904D5D501886D
:102AD00001EA0B0141F0800101802068B0F850202C
:102AE0002B78062101EBC3010A4408EB4201405A4E
:102AF00083059B0DEB6110D0696971B1EA8801E033
:102B000058E056E0206802F04DF8E9696869084429
:102B1000686100212046FEF721F820680188090538
:102B20002DD4B0F850100844296900F20C4051B17E
:102B30003E2910D84A08C90700D0521C4FF6FF7131
:102B400001EA82210FE0018821F4F8410180018827
:102B500041F4004107E04A09C90600D1521E4FF472
:102B6000004141EA82210180206801884BF68F7282
:102B7000114081F4405148F280021143018082E00B
:102B8000D4F800C0BCF850102A78062000EBC20030
:102B9000014408EB41003CF800008005800D0090E6
:102BA0001AD0EA8813E03A4629462046FEF734F860
:102BB000009011E0062101EBC000111808EB410064
:102BC0003CF800008005800D009005D06A8903461E
:102BD0006046696901F0E6FFE96900980844E86128
:102BE0006969009808446861A86918B12969009862
:102BF000814204D929782046FDF7B0FF03E0294639
:102C0000206801F0B5FC38063DD506EB860004EBE4
:102C1000C001206830F8262002EA0A0242F400428D
:102C200020F8262091F82B002831032804D018B171
:102C3000022824D1F80522D42368B3F850200D7857
:102C400009EBC500024408EB4200185A8A69C0F338
:102C5000090082420CD9121A8A610BD04A690244D7
:102C60004A61CA691044C861206801F081FC0AE029
:102C700000208861E9B22046FDF767FF03E03A468D
:102C80002046FEF73CF82068B0F8441009043FF5F0
:102C900085AE0020BDE8F88F70470000144810B5DD
:102CA000D0F8242200EB8202C2F80012D0F82412DD
:102CB00007291AD0D0F8241211F10101C0F824120A
:102CC000D0F82412D0F82022914202D10121C0F87C
:102CD0002812D0F8241200EB8111064800F076FC8F
:102CE000BDE81040034800F055BC0021E6E70000B5
:102CF000540A0020B00E0020704770B50C460546FF
:102D0000A1B22846FDF796FA022803D0012801D087
:102D10000028F5D170BD000070B5094E094D0024A2
:102D200004EB440056F8301031B1297806EBC000AE
:102D3000491C297001F0C2FF641C082CF0D370BD3F
:102D4000A450000804000020FDF748BE30B593B041
:102D500028216846FDF7FFF914210AA8FDF7FBF9C1
:102D6000002401200F9410941194010412948DE812
:102D7000130004904FF4E010CDE9081002250795E8
:102D80006846FEF7F3FC08B172B6FEE70F20CDE906
:102D90000A054FF48060CDE90C4002210AA80E9488
:102DA000FEF7F8FB08B172B6FEE710200F90129400
:102DB0000FA8FEF779FB002801D072B6FEE713B02A
:102DC00030BD704710B50648FEF714FF0548FEF702
:102DD00011FFFFF7A1FFBDE8104002F037B8000077
:102DE000A8010020380200200148FEF79BBF000028
:102DF000A80100200148FEF795BF0000380200201E
:102E0000F0B50268164B174C174D4FF080479842AB
:102E100005D0B84203D0A04201D0A84203D122F08D
:102E200070064A683243984205D0B84203D0A042A7
:102E300001D0A84203D122F44074CA6822434C69ED
:102E400022F08002224302608A68C2620A688262BB
:102E5000984201D10969016301214161F0BD00007F
:102E6000002C0140000400400008004010B58468B8
:102E700042EA032224F47F440A432243826010BDC5
:102E8000826822F070020A4342F0070181607047B5
:102E900030B5026A22F001020262026A4368846964
:102EA00024F073050C682C4322F002058A682A433B
:102EB0000A4DA8420BD122F00805CA6823F44073DA
:102EC0002A434D6922F004021D438B692B43436062
:102ED000846149684163026230BD0000002C0140FA
:102EE00030B5026A22F010020262026A4368846905
:102EF0000D6824F4E64444EA05248D6822F020029B
:102F000042EA05120B4DA8420ED1CD6822F0800294
:102F100042EA05124D6923F4406343EA85038D6953
:102F200022F0400243EA850343608461496881637B
:102F3000026230BD002C014030B5026A22F480727A
:102F40000262036A4268C46923F4007324F07305C3
:102F50000C682C438D6843EA05230C4DA8420ED122
:102F6000CD6823F4006343EA05234D6922F44052FF
:102F700042EA05128D6923F4806342EA0512426039
:102F8000C4614968C163036230BD0000002C014088
:102F900030B5026A22F480520262046A4268C36950
:102FA0000D6823F4E64343EA05238D6824F40054B6
:102FB00044EA0534064DA84204D14D6922F480420A
:102FC00042EA85124260C36149680164046230BD0F
:102FD000002C014010B5036A046A24F00104046265
:102FE000846924F0F00444EA021423F00A020A433C
:102FF0008461026210BD10B5036A23F010030362FE
:103000008369046A23F4704343EA023224F0A00384
:1030100043EA01118261016210BD10B5406A0021CE
:10302000C185C184FFF73AF810BD70B5446A2068C5
:10303000406994F83D10C0F3C0100025212904D147
:1030400018B1E584204600F083F82068406994F8C0
:103050003E10C0F38010222904D118B1E585204626
:1030600000F05EF8206C40F0100020642046FFF76E
:1030700015F870BD10B50146406A096809688906EF
:103080001BD40021C1850168CA6822F48072CA601D
:1030900001684A6922F001024A6101684A6922F026
:1030A00040024A61202180F83E10016B012904D1C1
:1030B0000168CA6822F01002CA60016B012902D0BF
:1030C000FFF7BEF910BD818DFEF7ADFF10BD10B545
:1030D000406A016B012902D0FFF70EFA10BD818D05
:1030E0004908FEF7A0FF10BD10B50146406A096807
:1030F000096889060CD40021C18401684A6922F05C
:1031000080024A610068C16841F04001C16010BDA1
:10311000FFF78EFA10BD10B5406AFFF78AFA10BDAE
:103120000168CA6822F49072CA6001684A6922F094
:1031300001024A61016B012904D10168CA6822F0C9
:103140001002CA60202180F83E1000210163704700
:103150000168CA6822F0C002CA60202180F83D10D0
:10316000704708B590F83E10222901D0022008BD12
:1031700082684FF480539A4201D1016921B1816A7A
:103180009A421BD04AB10AE00268816A5268C2F3CF
:1031900008020A80816A891C08E0026972B102682B
:1031A000526802F07F020A70816A491C8162C18DF7
:1031B000491E0904090CC18503D019E00268526850
:1031C000F1E70168CA6822F02002CA600168CA6893
:1031D00022F48072CA6001684A6922F001024A61E1
:1031E000202180F83E10016B012903D0FFF728F958
:1031F000002008BD002101630168CA6822F01002A6
:10320000CA6001680A68D20602D50A684968009156
:10321000818DFEF708FFEBE770B504460068016991
:10322000E26821F44051114301612169A06808431B
:10323000616908432168CA6841F20C639A430243FA
:10324000CA6020684169A26921F44071114341615B
:103250001E492068884202D1FEF742FA01E0FEF7DB
:103260002FFA00EBC00101EB0012606864218000BE
:10327000B2FBF0F3B3FBF1F36FF018067343B2FB4C
:10328000F0F5B2FBF0F605EB8305322303EB0515F1
:10329000B5FBF1F5B6FBF1F605F0F00505EB06150B
:1032A000B2FBF0F6B2FBF0F0B0FBF1F06FF01802F9
:1032B000504306EB800003EB0010B0FBF1F02168F7
:1032C00000F00F002844886070BD00000038014005
:1032D00038B58162828500251346044605642220A4
:1032E00084F83E00A26B13489062A26B1248D06231
:1032F000A26B12481063A06B0A4645632168A06B5D
:10330000091DFDF737FA206801684168009184F8CB
:103310003C50C16841F48071C1602068416941F04E
:10332000010141612068416941F040014161002093
:1033300038BD000075300008CF3000082B30000881
:1033400081628285C28500210164222280F83E20AC
:1033500080F83C100168CA6842F48072CA60016853
:103360004A6942F001024A610068C16841F02001E7
:10337000C160002070472DE9F041984617460E467F
:103380000446069D1DE0681C1BD02DB1FDF720FBF7
:10339000A0EB0800A84214D92068C16821F4D071BC
:1033A000C1602068416921F001014161202084F859
:1033B0003D0084F83E00002084F83C000320BDE876
:1033C000F0812068006836EA000004D00020B8428E
:1033D000D9D00020F3E70120F9E7000010B5012063
:1033E00001F0B2FCBDE810400148FEF759BE0000F4
:1033F000800200202DE9F041D0F8C032D0F8B82288
:10340000CAB101EB810500EB85040026E7693FB1F5
:1034100003EBC5039B6BB7FBF3F503FB157323B1FC
:10342000C2F814620020BDE8F08100231A46E6616C
:1034300000F07FFCF6E70220F5E770B50546D0F80E
:10344000B84200F07AFBC4F80C02D5F8B80248B1D3
:10345000D5F8BC12D4F80402CA6804F50371904789
:10346000002070BD022070BD70B504460026812189
:1034700000F0B6FA002501212046E56200F0B0FA1E
:1034800082212046C4F86C5100F0AAFA2564D4F8D1
:10349000B80248B1D4F8BC0204F52E7440688047E5
:1034A000206800F016FE2560304670BD10B5D0E9EA
:1034B000AE4159B194F80002FF2807D08B6894F808
:1034C000012221469847FF2084F80002002010BD09
:1034D0000A210180004870479400002043210180A8
:1034E00000487047E40000204321018000487047F5
:1034F000A0000020432101800048704728010020DF
:103500002DE9F04104460026007C4FF400770125A8
:1035100090B3402302228121204600F063FB402328
:10352000E56202220121204600F05CFB0823032211
:1035300082212046C4F86C5100F054FB4FF4077010
:10354000256400F0C7FDC4F8B802F8B10546D4F808
:10355000BC02006880470020C5F81402C5F81802B4
:10356000207CD5F8042298B140230121204600F0A8
:1035700045FB3046BDE8F081FFE73B460222812152
:10358000204600F02FFB3B46E562CAE70126F0E744
:103590003B46EAE710B5D0F8B81269B1027C002AC0
:1035A000D1F8042205D04023012100F027FB0020A0
:1035B00010BD4FF40073F7E7022010BD0246022051
:1035C000002902D00020C2F8BC127047D0F8B8021F
:1035D000C0F8041200207047D0F8B802C0F81022DA
:1035E000C0F80812002070472DE9FC410546D0F8CC
:1035F000B87200208DF80000ADF804000646087887
:103600000C4610F0600121D020293BD1E288AAB1FC
:103610000006607807D5D5F8BC128B683946984704
:10362000E288394626E087F80002A07987F801028F
:10363000E2883946284600F06AF828E0D5F8BC123E
:10364000607800228B682146984720E0607820B19E
:103650000A2809D00B2815D110E095F89C02032800
:1036600010D1022201A905E095F89C02032809D196
:1036700001226946284600F064F808E095F89C02AB
:10368000032804D02146284600F036F802263046AA
:10369000BDE8FC8110B5D0F8B812A1B1D1F8142260
:1036A0000AB1012010BD0122C1F81422D1F8102264
:1036B0000263B1F8102293B2D1F80822812100F000
:1036C00038FB002010BD022010BD10B5D0F8B42288
:1036D00052689047002010BD134610B50A460021DD
:1036E00000F08CFA002010BD134610B50A460021E8
:1036F00000F01FFB002010BD10B50446802100F033
:10370000FDFA2046BDE81040002100F0F7BA10B5E0
:103710000323C0F85C21C0F89432C0F8602113463E
:103720000A46002100F06AFA002010BD10B50521FC
:103730000023C0F894121A46194600F05FFA0020E0
:1037400010BD10B50223C261C0F894320262134664
:103750000A46002100F0EDFA002010BD10B504214A
:103760000023C0F894121A46194600F0E2FA00202D
:1037700010BD000010B50A46024903A000F0E2F8AF
:10378000004810BD7411002043444320436F6E660F
:103790006967000012200880004870475000002030
:1037A00010B50A46024903A000F0CCF8004810BD4D
:1037B0007411002043444320496E7465726661634E
:1037C0006500000004200880004870474C0000207D
:1037D00010B50A46024903A000F0B4F8004810BD35
:1037E0007411002053544D6963726F656C65637486
:1037F000726F6E696373000010B50A46024903A038
:1038000000F0A0F8004810BD7411002053544D334F
:1038100032205669727475616C20436F6D506F72FF
:103820007400000010B51A2008800A480168001DC5
:103830000468001D0068081809D008220649FEF730
:10384000FBFE0549042210312046FEF7F5FE024832
:10385000801E10BDE8F7FF1F66000020F8B5044683
:103860000020ADF8000048880D46010A082948D21A
:10387000DFE801F04704091747473C45D4F8B01288
:10388000207C0A6819E0207C02260028D4F8B402C3
:1038900005D0C16A68468847014646703EE0816AA5
:1038A000F8E7C0B206282CD2DFE800F0030A1014B3
:1038B000181CD4F8B002426805E0694690471CE045
:1038C000D4F8B0028268E2B1207CF6E7D4F8B00206
:1038D000C268F8E7D4F8B0020269F4E7D4F8B0029D
:1038E0004269F0E7D4F8B0028269ECE7207C40B985
:1038F000D4F8B402416B6846884701460EE0207C4C
:1039000020B129462046FFF7F7FEF8BDD4F8B402EF
:10391000016B68468847014607204870BDF80000E3
:1039200048B1EA8852B1824200D90246ADF800207F
:103930002046FFF706FFE8880028E6D12046FFF77B
:103940000DFFF8BD70B5002300281ED004460025E9
:1039500002E06D1CEDB2641C2678002EF9D1022421
:1039600004EB450414801278CA545B1C0322CA5429
:1039700000245B1C06E0CA545B1CDAB28C54521C57
:10398000D3B2401C0278002AF5D170BD01004FF07F
:10399000000004D0012901D0022901D00220704783
:1039A0000120704710B580B1D0F8B43213B10023B4
:1039B000C0F8B43209B1C0F8B012012180F89C12ED
:1039C000027000F0BFF8002010BD022010BD10B53D
:1039D000D0F8C002FDF7F2F8BDE81040FFF7D6BFFF
:1039E00010B5D0F8C002FDF7C3F8BDE81040FFF7EE
:1039F000CDBF2DE9F0411746044651B1D4F8B402C9
:103A000042691AB194F89C02032851D00220BDE803
:103A1000F081D4F89432002504F11400022B03D075
:103A2000042B3AD0C3B33CE0D0E903639E4207D9EC
:103A3000F11AC1608AB239462046FFF755FE12E0FE
:103A40008068B0FBF3F103FB110199B9984211D3DF
:103A5000D4F8981288420DD2002211462046FFF772
:103A600043FEC4F8985200231A461946204600F037
:103A7000C5F816E0D4F8B402C16829B194F89C02E4
:103A8000032801D1204688478021204600F036F9DE
:103A90002046FFF74BFE04E0FFE78021204600F0C0
:103AA0002DF994F8A002012804D184F8A05201E075
:103AB000204690470020AAE770B51546044649B154
:103AC000D4F8B40282691AB194F89C02032830D069
:103AD000022070BDD4F8941204F5AA70032902D014
:103AE00005291ED027E0D0E903218A420BD9531AB9
:103AF000C3600846834200D303469AB22946204653
:103B0000FFF7EAFD17E0D4F8B402016929B194F88F
:103B10009C02032801D1204688472046FFF71EFE5D
:103B200009E000200146C4F89402204600F0E6F8BF
:103B300001E020469047002070BDD0F8C002FDF79C
:103B400076BA000010B504461C481D49C0F8E8428A
:103B5000C4F8C00201600821416002218160002197
:103B60008161C1610162FDF7B1FB08B1FCF7B8FCEE
:103B70000022D4F8C0021823114604F53074FCF773
:103B8000C5FF5823002280212068FCF7BFFFC02317
:103B9000002281212068FCF7B9FF4FF488730022CE
:103BA00001212068FCF7B2FF4FF4807300228221CC
:103BB0002068FCF7ABFF002010BD0000941500202A
:103BC000005C00400A0601F07F01D0F8C00201EB62
:103BD000810100EBC10002D590F82A00704790F8EF
:103BE0006A01704710B51C461346D0F8C002224641
:103BF000FDF726FABDE81040FFF7C8BE10B5D0F8B3
:103C0000C002FDF74DFABDE81040FFF7BFBE70B52A
:103C10000022044640231146FFF7E4FF4026012519
:103C2000C4F864613346002280212046C4F858510C
:103C3000FFF7D8FF6662A56184F89C520020C4F8A3
:103C400094026060C4F8A402D4F8B80228B1D4F891
:103C5000B4020021426820469047002070BD90F8D1
:103C60009C12042903D190F89D1280F89C12002028
:103C7000704710B590F89C12032904D1D0F8B41203
:103C8000C96901B18847002010BD01740020704748
:103C900010B5D0F8C002FDF7C0FBBDE81040FFF73B
:103CA00075BE70B5044600F52A70054600F04AF866
:103CB0000120C4F89402B4F8AE02C4F8980294F853
:103CC000A80210F01F010AD001290DD0022910D03E
:103CD00000F08001204600F011F8002070BD294658
:103CE000204600F09EF8F8E72946204600F0CAF981
:103CF000F3E72946204600F01DF9EEE710B5D0F8AD
:103D0000C002FDF7E6F9BDE81040FFF73FBE10B571
:103D1000D0F8C002FDF79CFBBDE81040FFF736BEAF
:103D200090F89C1280F89D12042180F89C120020CB
:103D3000704710B5D0F8C002FDF704FABDE8104096
:103D4000FFF724BE0A7802704A7842708A78CB78EE
:103D500002EB032242800A794B7902EB0322828034
:103D60008A79C97902EB0121C1807047024600209F
:103D700011B1C2F8B41270470220704710B5D0F8E4
:103D8000B42202241AB11268904700B900242046D8
:103D900010BD000070B50E461E4D8978044629708E
:103DA000012931D894F89C0202280BD003280FD0A7
:103DB00031462046FFF7A0FC29782046BDE8704038
:103DC000FFF783BCD9B10320616084F89C0209E04D
:103DD00071B16068884212D0C1B22046FFF775FC0D
:103DE000297861602046FFF7C9FF02280CD006E061
:103DF000022084F89C0220466160FFF766FC2046A2
:103E0000BDE87040FFF7AABC31462046BDE87040CF
:103E1000FFF772BC9000002010B5FFF778FF00207C
:103E200010BD2DE9F0410A78002612F0600208D09A
:103E3000202A01D0402A70D1D0F8B422926890474D
:103E40006DE04B78002201250A2B66D2DFE803F0F3
:103E5000405D6557650805652C29FFF7FFFC5EE0AE
:103E600004468888D8B9C888C8B94888802816D236
:103E700000F07F0794F89C02032810D084F89E720B
:103E800039462046FFF704FF2046FFF767FC1FB1C5
:103E9000022084F89C0242E084F89C523FE02046D5
:103EA0003BE0FFF777FF3AE0CB88012B35D190F864
:103EB0009C32012B04D0022B02D0032B2DD104E025
:103EC0008260012200F1080116E00122011D13E0C9
:103ED00090F89C22012A03D0022A01D0032A1CD187
:103EE000CA88022A19D1C560D0F8A41209B10321E9
:103EF000C160022200F10C01FFF723FC0FE04988AA
:103F000001290CD1C0F8A45211E090F89C32012B89
:103F100008D0022B06D0032B04D0FFF7EDFB304670
:103F2000BDE8F08149880129F9D1C0F8A422FFF742
:103F300015FCF4E72DE9F0410A4604461078002705
:103F4000097910F060030AD0202B01D0402B50D10A
:103F5000D4F8B40211468368204698478FE0C0F336
:103F60004110012806D05078D0B301282AD0032868
:103F70003FD107E0D4F8B402114683682046BDE87B
:103F8000F041184794F89C02022802D0032872D10D
:103F90000AE071B380296ED02046FFF7AFFE802182
:103FA0002046FFF7ABFE6AE0508838B931B180296E
:103FB00004D0D08810B92046FFF7A0FE2046FFF7B6
:103FC000CDFB5CE094F89C020228E2D0032852D199
:103FD000508898BB4806F1D02046FFF7F8FCEDE783
:103FE000FFE794F89C020026022803D0032842D160
:103FF00012E040E009B180293DD1080601F07F00C0
:1040000000EB800004EB800101D5143101E001F5E3
:10401000AA7102220E602AE0080601F00F0000EBF0
:10402000800004EB80000AD5806920B301F07F0096
:1040300000EB800004EB800514350BE01FE0D0F8A6
:104040005801C0B101F07F0000EB800004EB800557
:1040500005F5AA7541B1802906D02046FFF7B2FDCB
:1040600010B10120286000E02E600222294620467F
:10407000FFF767FB03E011462046FFF73DFB38469C
:10408000BDE8F08170B5054608780C4610F0600078
:1040900003D0202801D0402816D195F89C02012891
:1040A00003D0022801D003280ED1207901280BD893
:1040B000D5F8B402826828469047E188014306D1CA
:1040C0002846FFF74BFB02E02846FFF715FB0020D0
:1040D00070BD7047004870477413002070B5134CD2
:1040E0000D460146D4F850042A4604EB801000F532
:1040F0000B70FCF717F8D4F8500404EB8000C0F8FC
:104100002C54D4F8500407280ED0D4F85004401C86
:10411000C4F85004D4F85004D4F84C14884202D1A6
:104120000120C4F8540470BD0020F1E7540A0020B7
:104130002DE9F0470C78002630F8243048F68F122D
:104140001340CA78002A7DD0012A7CD0022A02D0EE
:10415000032A7FD0012648F28002134320F824303E
:104160000D7830F8254048F68F731C402C431443DB
:1041700020F825400D7B48F2C00C48F6BF744CF285
:1041800080074BF68F79EDB391F80080C24630F886
:10419000285048F280181D4045EA080520F82A50AA
:1041A000B0F8505091F80080054405EB0815B1F8BF
:1041B000088028F00108A5F80084B0F8505091F864
:1041C0000080054405EB0815B1F80A8028F00108C5
:1041D000A5F808844D78002D0D7830F825804FEA39
:1041E00048487DD0B8F1000F07DA30F8258008EA9A
:1041F000030848EA070820F825800F7830F8275090
:104200006D0600E02CE006D530F827501D4045EA49
:104210000C0520F82750CB780D78012B30F825308D
:1042200003EA040301D083F02003134320F8253070
:104230000B7830F8231001EA0901114320F823100C
:10424000304602E003E008E004E0BDE8F08743F414
:10425000007380E743F4C0637DE743F480637AE74B
:104260004D782DB3B0F850500F78054405EB071585
:10427000CF8827F00107A5F800740F7830F8275091
:104280006D0606D530F827501D4045EA0C0520F88C
:104290002750CB78012B06D00B7830F82310214023
:1042A00081F02001C9E70B7830F823102140C4E7E2
:1042B000B0F850400D78044404EB0514CD8825F087
:1042C0000105A4F80854B0F850400D78044404EBFC
:1042D00005140D6904F20C4475B13E2D14D800E0AC
:1042E00030E04FEA550CED0701D00CF1010C4FF610
:1042F000FF7505EA8C2511E0258825F4F845258011
:10430000258845F4004509E04FEA551CED0601D12A
:10431000ACF1010C4FF4004545EA8C2525800D7861
:1043200030F82540640405D530F825401C403C4356
:1043300020F825400B7830F8231001EA090181F4B8
:1043400040517AE7B8F1000F07DA30F8258008EA23
:10435000030848EA070820F825800F7830F827502E
:104360006D0606D530F827501D4045EA0C0520F8AB
:1043700027500D7830F8253003EA090383F44053C1
:10438000134320F825308EE7002070472DE9F043D5
:1043900091F80C804F780A7848F6BF7C4BF68F79FD
:1043A00048F2800348F2C0054CF2800648F68F744C
:1043B000B8F1000F28D0002F30F822704FEA47479D
:1043C00048D0002F05DA30F822702740374320F814
:1043D00022700A7830F822707F0605D530F82270F6
:1043E00027402F4320F822700D7830F825202240F6
:1043F000324320F825200C7830F8242002EA0C0201
:104400001A4320F824201AE07FB130F822607606A3
:1044100005D530F8226026402E4320F822600A7825
:1044200030F8221001EA0C010EE030F822506D0441
:1044300005D530F822502540354320F822500A781F
:1044400030F8221001EA0901194320F82210002057
:10445000BDE8F083002F05DA30F82270274037439B
:1044600020F822700A7830F82260760605D530F8F8
:10447000226026402E4320F822600E7830F8262055
:1044800022402A4320F826200C7830F8242002EA23
:1044900009021A4320F82420C1E7002070470020B9
:1044A0007047012120F8401F002101808180018296
:1044B0000846704730F8401F21F43F41018000203A
:1044C00070470020704730B50A7BB2BB4A7848F687
:1044D0008F7548F28004C2B10B7830F82320520661
:1044E00007D530F823202A4048F2C0052A4320F897
:1044F0002320CA78012A20D00A7830F8221048F602
:10450000BF73194081F0200114E00A7830F822309E
:104510005B0407D530F822302B404CF280052B434A
:1045200020F822300A7830F822104BF68F731940A9
:1045300081F44051214320F82210002030BD10B5F5
:104540004A780978002A48F2800330F8212005D003
:1045500048F6BF74224082F0100204E04BF68F74DC
:10456000224082F480521A4320F82120002010BDFE
:104570002DE9F0470E464B78097B04464FF00009C1
:1045800048F68F7248F2800A4FF6FF774FF40048E2
:10459000012B09D000296ED0F07802286CD00128B8
:1045A0006BD00120BDE8F087B5693069854200D93C
:1045B0000546C9B1F17848F28013022923D0317839
:1045C00034F821001040184324F82100306A401BC1
:1045D0003062307834F82010490671787ED5002991
:1045E0007DD001297CD03FE1ABB2F28820467169D1
:1045F00000F0F6FAB4F850003178204400EB0110D6
:10460000A0F80454EAE0316A81426AD9317834F87A
:1046100021001040184324F82100306A401B30620A
:10462000307834F82010490671786CD511B1012921
:1046300024D02AE0B4F85010214401EB001000F21D
:104640000C404DB13E2D0FD86908EA0700D0491C37
:1046500007EA8121018018E0018821F4F8410180F6
:10466000018841F40041F5E76909EA0600D1491ED5
:1046700048EA8121EEE79CE1BCE126E2B4F8502053
:10468000111901EB0010A0F80C547289ABB220464E
:10469000716900F0A5FA7069284470613169306A67
:1046A000884202D9401B306202E00546C6F82090DD
:1046B000707800287CD1B4F850003178204400EBA9
:1046C000011000F204406DB13E2D13D86908EA07CD
:1046D00000D0491C07EA8121018012E001E19BE042
:1046E000BBE084E0018821F4F8410180018841F4B5
:1046F0000041F1E76909EA0600D1491E48EA812133
:10470000EAE7328965E011B1012921D027E0B4F848
:104710005010214401EB001000F204404DB13E2D39
:104720000FD86908EA0700D0491C07EA81210180F7
:1047300015E0018821F4F8410180018841F400412D
:10474000F5E76909EA0600D1491E48EA8121EEE74A
:10475000B4F85010214401EB0010A0F80454328941
:10476000ABB22046716900F03BFA70692844706171
:104770003169306A884202D9401B306202E0054646
:10478000C6F82090707800287ED1B4F850003178B7
:10479000204400EB011000F20C4055B13E2D10D822
:1047A0006908EA0700D0491C07EA812101800FE06F
:1047B00072E0018821F4F8410180018841F4004150
:1047C000F4E76909EA0600D1491E48EA8121EDE7CC
:1047D0007289ABB22046716900F002FA317834F880
:1047E000210048F6BF72104080F03000C0E13278FE
:1047F00034F8220048F68F63184040EA0A0024F893
:104800002200B4F850003278204400EB02108BB242
:10481000A0F804343289DDE7B4F85010214401EBEC
:10482000001000F20C404DB13E2D0FD86908EA0788
:1048300000D0491C07EA8121018015E0018821F49C
:10484000F8410180018841F40041F5E76909EA0671
:1048500000D1491E48EA8121EEE7B4F85020111931
:1048600001EB0010A0F80C547289ABB220467169BC
:1048700000F0B6F97069284470613169306A884285
:1048800003D9401B306203E06EE00546C6F8209075
:10489000002DA3D0707858B101287FF41EAFB4F872
:1048A00050003178204400EB0110A0F8045428E7B0
:1048B000B4F850003178204400EB011101F20441BA
:1048C0003E2D06D86808EA0700D0401C07EA802081
:1048D00005E06809EA0600D1401E48EA8020088009
:1048E0000FE711B1012921D027E0B4F8501021447D
:1048F00001EB001000F204404DB13E2D0FD86908C5
:10490000EA0700D0491C07EA8121018015E00188EF
:1049100021F4F8410180018841F40041F5E769097B
:10492000EA0600D1491E48EA8121EEE7B4F85010AA
:10493000214401EB0010A0F804543289ABB22046A8
:10494000716900F04DF97069284470613169306A0D
:10495000884202D9401B306202E00546C6F820902A
:10496000002D96D0707858B101287FF420AFB4F8AC
:1049700050100819317800EB0110A0F80C5427E70B
:10498000B4F850003178204400EB011101F20C41E1
:104990003E2D06D86808EA0700D0401C07EA8020B0
:1049A00005E06809EA0600D1401E48EA8020088038
:1049B0000EE7B1693069814202D9091AB161B5E0E7
:1049C0000846C6F81890B1E0088820F4F84008803E
:1049D000088840F400400BE03E2875D84208C00724
:1049E00000D0521C07EA822002E000BF48EA822081
:1049F0000880B5E093B9B4F850003178204400EB5A
:104A00000110316900F2044069B13E2913D84B0806
:104A1000C90700D05B1C07EA83210180707888B148
:104A2000012832D03AE0018821F4F8410180018860
:104A300041F40041F1E74B09C90600D15B1E48EA89
:104A40008321EAE7B4F850003178204400EB0110EC
:104A5000316900F20C4049B13E290FD84B08C90713
:104A600000D05B1C07EA8321018017E0018821F454
:104A7000F8410180018841F40041F5E74B09C9067E
:104A800000D15B1E48EA8321EEE7B4F85010081904
:104A9000317800EB0110318AA0F80C14F069A8B34A
:104AA000317834F82100430401D5430603D444F29D
:104AB0004003184254D134F82100104048F2C0029B
:104AC000104324F821004BE03CE0B1693069814299
:104AD00002D9091AB16102E00846C6F818908BB9EC
:104AE000B4F850103278214401EB021101F2044174
:104AF00068B13E2813D84208C30700D0521C07EA09
:104B000082220A80717889B1012921D028E00A889F
:104B100022F4F8420A800A8842F40042F1E742098E
:104B2000C30600D1521E48EA8222EAE7B4F85010C8
:104B30003278214401EB021101F20C4100287FF48C
:104B40004BAF41E74209C0067FF450AF521E4DE71C
:104B5000B4F850201119327801EB0211A1F80C04BD
:104B6000317834F821004BF68F72104080F44050B9
:104B700040EA0A0024F82100002013E50021A0F8F3
:104B800044104FF43F41A0F840100020704700004F
:104B90000148FCF7F1BA000094150020B0F8440079
:104BA0007047000010B500EB42005C0800F5806023
:104BB00009D000BF30F8042B01F8012B120A01F8CC
:104BC000012B641EF6D1DA0701D00088087010BDF1
:104BD0000020704711B98021A0F84C1000207047C8
:104BE00010B55B1C00EB42005B0800F5806009D04B
:104BF00011F8012B11F8014B42EA042220F8042B92
:104C00005B1EF5D110BDFFF769BA000070B51646FE
:104C1000402A3ED808283CD800283AD01E4A00EB4B
:104C2000400002EBC00050F8185C002D31D06D1E22
:104C3000C5EB051000EB8002184800EBC204D4F865
:104C40004802324600EB8010204400F59870FBF7D4
:104C500069FAD4F8480204EB8000C0F83462D4F852
:104C60004832D4F8442229460DA000F01DF9D4F8AA
:104C7000480203280ED0D4F84802401CC4F8480269
:104C8000D4F84802D4F84412884202D10120C4F872
:104C90004C0270BD0020F1E7A45000084C03002036
:104CA000646D613A20256420686561642025642074
:104CB0007461696C202564200A00000070B50568E5
:104CC00004466D1E032D3BD26068FDF7EFFAC5EB7D
:104CD000051000EB80011B48626840F8312000EBB2
:104CE000C101A26800204A60C1F82001C1F8240176
:104CF000C1F828012269C1F82C21E2688A60C1F854
:104D00004402C1F84802C1F84C02C1F8500260697F
:104D1000C1F8540260680068C26842F01002C260C4
:104D2000A0684FF040020028606801F10C0103D038
:104D3000BDE87040FDF75ABBBDE87040FDF76BBBA6
:104D400070BD00004C0300202DE9F8433C4900EB06
:104D5000400001EBC00050F8180C00286BD0401E3A
:104D6000C0EB0010374B00EB800653F836000168AB
:104D70000A68D243D2065ED40A6800274A680092C5
:104D80000A68496803EBC6040091616839B3984624
:104D9000FDF74AF9606800684068C0F14005002DE1
:104DA0000EDDD4F8240104EB8000C0F81051D4F8D3
:104DB0002401032810D0D4F82401401CC4F8240195
:104DC000D4F8241158F8360001EB81112144402217
:104DD0000C31FDF70BFB23E0C4F82471F0E7FDF77D
:104DE0004FF953F83600C58D002D0EDDD4F824019F
:104DF00004EB8000C0F81051D4F8240103281CD023
:104E0000D4F82401401CC4F82401D4F82401402221
:104E100000EB8010211853F836000C31FDF7FBFA37
:104E2000002D08DDD4F82401D4F82011884202D1E5
:104E30000120C4F82801BDE8F883C4F82471E4E730
:104E4000A45000084C030020FEE700000E4810B5F7
:104E50000021C0F82812C0F82412C0F82012C0F8AF
:104E60005414C0F85014C0F84C14C0F85814D0F8BA
:104E7000241200EB81110548FEF7A8FBBDE81040A5
:104E80000248FEF787BB0000540A0020B00E002045
:104E900010B5FBF74FFAFBF70FFAFBF7E1F9BDE8A6
:104EA0001040FBF799BA00000FB4054B10B503A9E9
:104EB000044A029800F028F810BC5DF814FB0000CA
:104EC0005D500008A40100200907090E002804DB3A
:104ED00000F1E02080F80014704700F00F0000F1AE
:104EE000E02080F8141D704702E008C8121F08C1B6
:104EF000002AFAD170477047002001E001C1121F5B
:104F0000002AFBD1704700002DE9FF4F89B09B4676
:104F10000446002506E025280BD05A460B999047F9
:104F2000641C6D1C20780028F5D10DB02846BDE822
:104F3000F08F0027B8460122474900E0074314F8E4
:104F4000013F203B02FA03F00842F7D120782E28D7
:104F500019D114F8010F47F004072A280ED06FF07A
:104F60002F022078A0F1300109290CD808EB880124
:104F700002EB410100EB0108641CF2E70A98641C93
:104F800050F8048B0A9020780028CED0642808D0EE
:104F9000692806D075281ED05A460B9990476D1C7B
:104FA00058E00A994FF00A0901C90A91002802DA6B
:104FB00040422D2102E0390504D52B218DF8201027
:104FC000012103E0F90704D02021F7E78A4608AE63
:104FD0000DE00021FAE70A994FF00A0901C90A9188
:104FE000F7E74946FBF7C2F8303106F8011D002803
:104FF000F7D1ADEB060000F12009780701D44FF09E
:105000000108C84502DDA8EB090000E00020804649
:10501000002706E008A85A46C05D0B9990476D1C12
:105020007F1C5745F6DB04E030205A460B99904729
:105030006D1CB8F10001A8F10108F5DC05E016F8D7
:10504000010B5A460B9990476D1CB9F10001A9F16B
:105050000109F4DC641C65E70928010013B5044864
:105060000A23012269460068FDF748FA00981CBD32
:1050700000000020FBF7BAFCFDF768FEFDF716FB09
:10508000FDF7F6FAFDF784FBFDF7B6FBFDF732FC02
:10509000FDF7FEFBFDF74AFCFDF794FEFFF7F8FE77
:1050A000FCE700000100000080020020C402002094
:1050B00008030020074C000800000000000000006A
:1050C00000000000000000000000000000000000E0
:1050D00000000000000000000000000000000000D0
:1050E00000000000000000000000000000000000C0
:1050F00000000000000000000000000000000000B0
:10510000000000000000000000000000000000009F
:10511000000000000000000000000000000000008F
:10512000000000000000000000000000000000007F
:10513000000000000000000000000000000000006F
:10514000000000000000000000000000000000005F
:10515000000000000000000000000000000000004F
:105160000000000000000000000000000102030435
:105170000607080900000000010203049C51000812
:1051800000000020A8010000BC01000860520008D7
:10519000A8010020D81E0000F84E0008138002026B
:1051A0001C20320182101324F41395371B08C50408
:1051B0001AD1041AF9041325381B0875081AA1041A
:1051C000170403090412011402020216408304406A
:1051D000571D0201020341031A1A03131D021B0883
:1051E00019041A15041A270441130A0632022A4028
:1051F0007C1C09024347111DC03209048D1A020BA1
:1052000013052416100105240110090104240202CB
:10521000052406170107058203081C1009047D32C6
:105220000A1D07050102432C070581070938442A96
:1052300040072A8107112B0907440A3B0444130144
:1052400035140869341B08E908411AAD0C13F5330D
:105250001B083B08C11AE9102ADD1C19045AD11C8D
:04000005080000ED02
:00000001FF
