:020000040800F2
:10000000005000206D130008E1040008E30400081C
:10001000E5040008E7040008E90400080000000007
:10002000000000000000000000000000EB040008D9
:10003000ED04000800000000EF040008F1040008CF
:10004000B5130008B5130008B5130008B513000870
:10005000B5130008B5130008B5130008B513000860
:10006000B5130008B5130008B5130008B513000850
:10007000B5130008B5130008F904000809050008C5
:10008000B5130008B5130008B5130008B513000830
:1000900019050008B5130008B5130008B5130008CA
:1000A000B513000829050008B5130008B5130008AA
:1000B000B513000839050008B5130008B51300088A
:1000C000B5130008B5130008B5130008B5130008F0
:1000D000B513000849050008B5130008B51300085A
:1000E000B5130008B5130008B513000800000000A0
:1000F0000000000000000000000000000000000000
:0C01000000000000000000005FF808F1A3
:10010C0010B5054C237833B9044B13B10448AFF345
:10011C0000800123237010BDBC09002000000000EA
:10012C00AC7C000808B5034B1BB103490348AFF383
:10013C00008008BD00000000C0090020AC7C000855
:10014C00844641EA000313F0030349D1403A23D318
:10015C000B6803604B6843608B688360CB68C3603B
:10016C000B6903614B6943618B698361CB69C36123
:10017C000B6A03624B6A43628B6A8362CB6AC3620B
:10018C000B6B03634B6B43638B6B8363CB6BC363F3
:10019C0040304031403ADBD230320BD30B68036035
:1001AC004B6843608B688360CB68C3601030103140
:1001BC00103AF3D20C3205D351F8043B40F8043B0F
:1001CC00043AF9D2043208D0D2071CBF11F8013B13
:1001DC0000F8013B01D30B8803806046704700BFD9
:1001EC00082A13D38B07B1D010F00303AED0C3F1A0
:1001FC000403D21ADB071CBF11F8013B00F8013BCA
:10020C00A4D331F8023B20F8023B9FE7043AD9D340
:10021C00013A11F8013B00F8013BF9D20B7803705D
:10022C004B7843708B78837060467047074B9842CD
:10023C0003D0074B984204D07047064B01221A702A
:10024C007047054B01221A70F6E700BFE009002049
:10025C00700A0020DA090020D909002008B500F046
:10026C00C5FF08BD08B5054803F02CF8044803F099
:10027C0029F800F019FE00F097FF08BDE0090020F6
:10028C00700A002008B500F073FB00F0EDFB00F0E5
:10029C0029FE01F027F800F0E9FF00F085FE08BD0B
:1002AC0000B583B00E4B5A6942F001025A615B698A
:1002BC0003F001030193019B002211460E2001F073
:1002CC00D1F80E2001F006F9002211460F2001F0A2
:1002DC00C9F80F2001F0FEF803B05DF804FB00BF75
:1002EC00001002402DE9F04188B0002404940594DC
:1002FC0006940794334B9A6942F010029A619A69FA
:10030C0002F010020092009A9A6942F020029A615F
:10031C009A6902F020020192019A9A6942F0040251
:10032C009A619A6902F004020292029A9A6942F066
:10033C0008029A619B6903F008030393039B224E06
:10034C0022464FF4F871304601F08EFB1F4D2246C9
:10035C004FF60741284601F087FB01224FF47E71CE
:10036C00284601F081FB4FF400530493184F059776
:10037C00069404A9174801F065FA48F20E03049399
:10038C000597069404A9304601F05CFA4FF4F87313
:10039C0004934FF00108CDF81480069402270797B8
:1003AC0004A9304601F04EFA4FF6FF730493CDF8D2
:1003BC0014800694079704A9284601F043FA08B064
:1003CC00BDE8F0810010024000080140000C014023
:1003DC00000011100010014072B6FEE700B595B098
:1003EC00282200210DEB020005F050FF002305939D
:1003FC000693079308930993019302930393049331
:10040C0001220A924FF480330B930E920222119226
:10041C0012934FF4E01313930AA802F0F9FAC0B93F
:10042C000F23059302210691002307934FF480625A
:10043C000892099305A802F02BFD60B910230193D3
:10044C000023049301A802F0FFFD30B915B05DF84C
:10045C0004FBFFF7C1FFFFF7BFFFFFF7BDFF08B5B8
:10046C0000F0CAFFFFF7BAFFFFF73CFFFFF718FFDA
:10047C0000F04CF900F026FA00F004FE00F07EF9D2
:10048C0005F0BAFCFFF7EEFEFFF7FCFEFCE7000000
:10049C0082B00E4B9A6942F001029A619A6902F09D
:1004AC0001020092009ADA6942F08052DA61DB694B
:1004BC0003F080530193019B054A536823F0E063DA
:1004CC0043F00073536002B0704700BF001002404D
:1004DC0000000140FEE7FEE7FEE7FEE7FEE770479F
:1004EC007047704708B500F099FF08BD08B5024881
:1004FC0001F006F908BD00BF1412002008B502482F
:10050C0001F0FEF808BD00BFD011002008B502486C
:10051C0002F023F808BD00BFC423002008B5024830
:10052C0002F009FF08BD00BFE009002008B5024831
:10053C0002F001FF08BD00BF700A002008B50120C1
:10054C0000F010FB014803F043FC08BD58120020DA
:10055C0038B50546002408E001220CE04FF4807108
:10056C001C4801F081FA0134E4B2052C31D815F0A5
:10057C00200FF1D000226D00EDB2052CF3D801A3B1
:10058C0053F824F069050008A9050008B505000812
:10059C00C1050008CB050008D50500084FF4004143
:1005AC000D4801F061FADEE74FF480410A4801F092
:1005BC005BFAD8E74021074801F056FAD3E720212F
:1005CC00044801F051FACEE71021024801F04CFA30
:1005DC00C9E738BD00080140000C014038B540EABD
:1005EC000105002407E000220BE00421244801F05F
:1005FC003BFA0134E4B2072C41D815F0800FF2D14C
:10060C0001226D00EDB2072CF3D801A353F824F0AE
:10061C00F70500083D0600084906000855060008C5
:10062C005F06000869060008730600087F060008CC
:10063C004FF40051124801F017FADAE74FF48061D9
:10064C000F4801F011FAD4E780210E4801F00CFAA2
:10065C00CFE701210A4801F007FACAE7022108484E
:10066C0001F002FAC5E74FF48051054801F0FCF99E
:10067C00BFE74FF40061024801F0F6F9B9E738BD65
:10068C00000C01400008014070B50C4616460025D0
:10069C0006E0AFF30080214601F8010B01350C4652
:1006AC00B542F6DB304670BD4FF0FF3070474FF46B
:1006BC0000534B60002070470120704700207047AA
:1006CC0010B503460C4A0D490D48006840B10C4862
:1006DC0000680344521A934206D8094A136010BDAD
:1006EC000748084C0460F2E705F0A6FD0C230360F4
:1006FC004FF0FF30F3E700BF005000200004000073
:10070C00DC090020182900207047000000B587B0D4
:10071C0000230293039304930593009301931548CC
:10072C00154A026047224260836040F2E732C260A1
:10073C0003614361836102F0F5FE90B94FF480537D
:10074C00029302A90B4802F0EBFF68B90023009357
:10075C0001936946074803F051F840B907B05DF8BA
:10076C0004FBFFF739FEE9E7FFF736FEEEE7FFF78C
:10077C0033FEF3E7E0090020002C014000B587B000
:10078C00002302930393049305930093019314485D
:10079C00144A026041F61F4242608360C3600361E9
:1007AC00836102F0BFFE90B94FF48053029302A90B
:1007BC000B4802F0B5FF68B900230093019369461A
:1007CC00074803F01BF840B907B05DF804FBFFF7CE
:1007DC0003FEE9E7FFF700FEEEE7FFF7FDFDF3E7A9
:1007EC00700A00200004004000B585B003681F4A61
:1007FC00934208D0B3F1804F18D01D4A934221D0B8
:10080C0005B05DF804FB1B4B9A6942F400629A61D7
:10081C009B6903F400630193019B0022114619208C
:10082C0000F020FE192000F055FEE9E703F5043333
:10083C00DA6942F00102DA61DB6903F00103029329
:10084C00029BDDE70B4BDA6942F00202DA61DB69ED
:10085C0003F002030393039B002211461D2000F0BA
:10086C0001FE1D2000F036FECAE700BF002C01403F
:10087C00000400400010024000B587B00023029332
:10088C000393049305930368B3F1804F02D007B030
:10089C005DF804FB03F504339A6942F004029A6193
:1008AC009B6903F004030193019B01230293022330
:1008BC000393059302A9024800F0C4FFE7E700BFC9
:1008CC000008014000B58FB000230A930B930C93E2
:1008DC000D93089309930193029303930493059347
:1008EC000693079321484FF0804202600522426034
:1008FC008360C36003618023836102F013FE30BB0D
:10090C004FF480530A930AA9184802F009FF08BB58
:10091C00164802F033FE00BB00230893099308A984
:10092C00124802F06BFFD8B96023019340F22B23DD
:10093C00029300220392059201A90C4802F07CFE5E
:10094C0088B90A48FFF798FF0FB05DF804FBFFF772
:10095C0043FDD5E7FFF740FDDAE7FFF73DFDDBE7A9
:10096C00FFF73AFDE0E7FFF737FDEAE7280A00203A
:10097C00354B1B78012B00D07047344A1388013358
:10098C009BB21380B3F57A7F03D02F4B00221A70E1
:10099C00F2E72F4B1B783B2B1DD001332C4A1370E5
:1009AC002B4B19782B482C4BA3FB0123DB0803EBB7
:1009BC00830C4FEA4C028A1A02704370234B0022BC
:1009CC001A8009293BD8254B1B78002B37D1244B97
:1009DC0001221A70D9E71E4B00221A701F4B1B788C
:1009EC003B2B11D001331D4A13701C4B1A7819493B
:1009FC00194BA3FB0203DB0803EB830C4FEA4C00FF
:100A0C00121A8A70CB70CBE7144B1A70154B1B78EB
:100A1C00172B11D00133134A1370124B1A780D494E
:100A2C000D4BA3FB0203DB0803EB830C4FEA4C00DA
:100A3C00121A0A714B71D8E70A4B1A70EDE7084B82
:100A4C0000221A70A1E700BFDA090020C00A0020BA
:100A5C00C30A0020B80A0020CDCCCCCCC20A00209E
:100A6C00D8090020BE0A002038B5002413E00B4B37
:100A7C001B5D0B4AD55C0020FFF76AFD0021284660
:100A8C00FFF7ACFDC4F10502064B13F82200FFF78B
:100A9C005FFD0134E4B2052CE9D938BDB80A002059
:100AAC00C47C0008D07C00080268D36823F49073DF
:100ABC00D3600268536923F001035361202380F84B
:100ACC003E30704738B50568013D022D00D938BD60
:100ADC000446406802F09CFF606821494FF416728E
:100AEC0005FB02F28B188850A2685A600022C3F8EA
:100AFC002021C3F82421C3F828212169C3F82C1123
:100B0C00E1689960C3F84422C3F84822C3F84C2228
:100B1C00C3F850226269C3F8542263681A68D36818
:100B2C0043F01003D360A36863B14FF4167105FB57
:100B3C0001F108310A4D294440220431606803F068
:100B4C00F9FAC4E74FF4167105FB01F10831044DB5
:100B5C00294440220431606803F093FAB7E700BFE0
:100B6C00C80A002070B582B0013800EB40005E4B23
:100B7C0053F83040002C66D0013C4FF4167304FB44
:100B8C0003F35A4AD05803681A6812F0100F5AD05F
:100B9C000022009219680091596800910099019205
:100BAC001A6801925B680193019B504B4FF41672CB
:100BBC0002FB04335B68002B4FD003F00BF84B4B5C
:100BCC004FF4167202FB04335B681B685D68C5F159
:100BDC004005002D18DD454902FB0412D2F82431E2
:100BEC00962000FB0433443341F82350D2F82431CF
:100BFC00032B2AD03D4B4FF4167202FB0433D3F86F
:100C0C0024210132C3F82421384E4FF4167004FB12
:100C1C0000F03318D3F8241101EB81110144083191
:100C2C00314440220431305803F084FA002D0ADD9F
:100C3C002E4B4FF4167202FB0433D3F82421D3F855
:100C4C0020319A4247D002B070BD4FF4167202FBAD
:100C5C0004130022C3F82421D6E7FFF725FF4FF435
:100C6C00167304FB03F3214AD058C38D9BB21D4667
:100C7C00DBB116464FF4167101FB0421D1F8242187
:100C8C004FF0960C0CFB0422443246F82230D1F87B
:100C9C002431032B1BD0154B4FF4167202FB04337B
:100CAC00D3F824210132C3F82421104A4FF41671D1
:100CBC0004FB01F15318D3F8243103EB83131944CB
:100CCC00083111444022043103F0DBF9AEE7002275
:100CDC00C1F82421E9E7054B4FF4167202FB0434EA
:100CEC000123C4F82831AEE7287D0008C80A00208B
:100CFC007047000038B503683E4A934209D0A2F50C
:100D0C00744293424FD002F5806293424AD103233E
:100D1C0000E00123013B03EB4303374A52F8334015
:100D2C00002C3FD0013C35494FF4167202FB0412E3
:100D3C00D2F82431962000FB04334433402041F890
:100D4C002300D2F82431032B2FD02C4B4FF41672E6
:100D5C0002FB0433D3F824210132C3F82421274B9E
:100D6C004FF4167202FB04335B6833B3234D104609
:100D7C0004FB00F02B18D3F8241101EB8111014472
:100D8C000831294440220431285803F0D3F91B4B75
:100D9C004FF4167202FB0433D3F82421D3F820311C
:100DAC009A421DD038BD0223B4E74FF4167202FBF1
:100DBC0004130022C3F82421D1E7104D4FF4167010
:100DCC0004FB00F02B18D3F8241101EB8111014422
:100DDC000831294440220431285803F052F9D6E74F
:100DEC00064B4FF4167202FB04340123C4F828316D
:100DFC00D8E700BF00380140287D0008C80A002051
:100E0C00402A4BD8F8B514460138072805D800EB12
:100E1C004000234B53F8305005B9F8BD013D214E2D
:100E2C004FF4167000FB05F3F718D7F8480200EBE7
:100E3C008010184400F598703044FFF781F9D7F80A
:100E4C004832962202FB05338C3306EB8306746022
:100E5C00D7F84832032B1DD0124B4FF4167202FBFD
:100E6C000533D3F848220132C3F848220D4B4FF416
:100E7C00167202FB0533D3F84822D3F844329A4257
:100E8C00CBD1084B4FF4167202FB05350123C5F884
:100E9C004C32C2E70022C7F84822E7E7704700BF90
:100EAC00287D0008C80A002010B5002400E0013499
:100EBC00072C12D804EB4402D300084AD358002B59
:100ECC00F5D0074A13780133137004EB4402D300B6
:100EDC0002481844FFF7F6FDE9E710BD287D00082D
:100EEC00C40A002038B5002441E02C494FF4167098
:100EFC0000FB04F28D18D5F82031962000FB04334A
:100F0C004433D5F8200100EB80101044083008441D
:100F1C00D5F82C2151F8231004309047D5F8203106
:100F2C00032B35D01D4B4FF4167202FB0433D3F850
:100F3C0020210132C3F82021184B4FF4167202FB0A
:100F4C0004330022C3F82821144B4FF4167202FB11
:100F5C000433D3F82831012BC7D0104B02FB0433D8
:100F6C00D3F82021D3F824319A42BED101340C4B52
:100F7C001B78A34210DD094B4FF4167202FB0433AD
:100F8C00D3F82831012BDFD1064805F01FFADBE737
:100F9C000022C5F82021CFE738BD00BFC80A0020C9
:100FAC00C40A0020007D000870B500240FE02C4816
:100FBC0005F00CFA18E00022C5F84422294B4FF436
:100FCC00167202FB04330022C3F84C220134264B68
:100FDC001B78A34243DD234B4FF4167202FB043300
:100FEC00D3F84C32012BE2D01E4B4FF4167202FB9D
:100FFC000433D3F84C32012B08D01A4B02FB0433C8
:10100C00D3F84422D3F848329A42DFD0154E4FF42D
:10101C00167004FB00F03518D5F84432962202FB0A
:10102C0004338C3306EB8303D5F8441201EB8111A6
:10103C00014401F598719A883144305802F084FDCE
:10104C00D5F84432032BB6D0064B4FF4167202FB84
:10105C000433D3F844220132C3F84422AEE770BD06
:10106C00147D0008C80A0020C40A002010B51446DC
:10107C004FF6FF7392B2024802F0F9FC204610BD05
:10108C005812002008B50A480A4B03604FF4E133AC
:10109C00436000238360C36003610C22426183615F
:1010AC00C36102F0B5FC00B908BDFFF795F9FBE789
:1010BC00581200200038014070B586B0002302930E
:1010CC000393049305930268314B9A4201D006B006
:1010DC0070BD044603F558439A6942F480429A6104
:1010EC009A6902F480420092009A9A6942F00402D2
:1010FC009A619B6903F004030193019B4FF4007305
:10110C0002930223039303230593224E02A9304634
:10111C0000F098FB4FF4806302930025039504952F
:10112C0002A9304600F08EFB1B481C4B0360456047
:10113C0085608023C360056145618561C56100F0F0
:10114C0001FAF0B9144BA3635C621548154B0360AC
:10115C0010234360002383608022C26003614361DB
:10116C008361C36100F0EEF970B90D4B63635C628F
:10117C0000221146252000F075F9252000F0AAF96F
:10118C00A5E7FFF729F9DDE7FFF726F9EDE700BF43
:10119C000038014000080140D011002058000240E6
:1011AC00141200204400024010B50E4B0022C3F86C
:1011BC002822C3F82422C3F82022C3F85424C3F8ED
:1011CC005024C3F84C24C3F85824D3F82412064CEA
:1011DC0003EB8111204604F003F9204604F020F9BA
:1011EC0010BD00BF9C1200200017002038B50D4622
:1011FC00164CD4F850349B0103F50A7323440A4669
:10120C000146181DFEF79CFFD4F8503403F5857386
:10121C0004EB83035D60D4F85034072B0DD00B4ADC
:10122C00D2F850340133C2F85034084BD3F8502460
:10123C00D3F84C349A4204D038BD0022C4F8502460
:10124C00F3E7024B0122C3F85424F5E79C1200206B
:10125C0038B505460C46A1B2284604F01DFE0228FE
:10126C0003D0012801D00028F5D138BD1C4BD3F890
:10127C002832012B06D01A4BD3F82022D3F8243273
:10128C009A422CD010B5164CD4F82012D4F8203237
:10129C00803354F8232004EB81110120FFF7B0FDBB
:1012AC00D4F82032072B16D00D4AD2F82032013355
:1012BC00C2F820320A4B0022C3F82822084BD3F87C
:1012CC002832012BDFD0064BD3F82022D3F824325E
:1012DC009A42D8D110BD0022C4F82022EAE7704708
:1012EC009C12002010B51C4BD3F85434012B2BD07E
:1012FC00194BD3F85434012B06D0174BD3F84C248C
:10130C00D3F850349A421ED0134CD4F84C3403F515
:10131C00857304EB8303D4F84C04800100F50A7048
:10132C00204459680430FFF793FFD4F84C34072B52
:10133C000ED0094AD2F84C340133C2F84C34064B67
:10134C000022C3F8542410BD044805F03FF8CFE741
:10135C000022C4F84C24F2E79C120020147D0008F3
:10136C000C480D490D4A002302E0D458C4500433F4
:10137C00C4188C42F9D30A4A0A4C002301E01360CA
:10138C000432A242FBD3FFF7BFF904F05BFFFFF777
:10139C0066F8704700000020BC090020587E000849
:1013AC00BC09002018290020FEE7000010B50446F7
:1013BC000E4B18784FF47A73B3FBF0F30C4A1068A9
:1013CC00B0FBF3F000F094F868B90F2C01D90120B0
:1013DC000AE0002221464FF0FF3000F043F8054BA5
:1013EC001C60002000E0012010BD00BF04000020A4
:1013FC00000000200800002008B5074A136843F0DD
:10140C0010031360032000F01BF80F20FFF7CEFF32
:10141C00FFF73EF8002008BD00200240034A116887
:10142C00034B1B780B441360704700BFF816002069
:10143C0004000020014B1868704700BFF81600200C
:10144C00074AD36823F4E0631B041B0C000200F46E
:10145C00E060034343F0BF6343F40033D360704751
:10146C0000ED00E000B5194BDB68C3F30223C3F1B8
:10147C00070CBCF1040F28BF4FF0040C03F1040E51
:10148C00BEF1060F18D9033B4FF0FF3E0EFA0CFCD1
:10149C0021EA0C0199400EFA03F322EA03031943E3
:1014AC0000280BDB0901C9B200F1604000F5614076
:1014BC0080F800135DF804FB0023E5E700F00F0053
:1014CC000901C9B2024B1954F4E700BF00ED00E06A
:1014DC0014ED00E0002807DB00F01F024009012397
:1014EC009340024A42F82030704700BF00E100E010
:1014FC000138B0F1807F0BD24FF0E0235861054AE0
:10150C00F02182F823100020986107221A6170479D
:10151C000120704700ED00E030B40124056CAC40B4
:10152C00C56B6C60046863604368102B05D003685E
:10153C0099600368DA6030BC704703689A6003688E
:10154C00D960F8E760B310B402460168154B0B4440
:10155C001548A0FB03031B099B001364134BD363B7
:10156C00022382F82130086820F47F5020F03000EC
:10157C00536894682343D468234314692343546900
:10158C00234394692343D469234303430B60002012
:10159C009063012382F8213082F8200010BC704740
:1015AC0001207047F8FFFDBFCDCCCCCC0000024031
:1015BC0038B5044690F82000012831D0012084F879
:1015CC00200094F82100012804D0002384F8203056
:1015DC00022038BD022084F821000020A063256879
:1015EC00286820F0010028602046FFF795FFE36A89
:1015FC005BB12268136843F00E0313602268136812
:10160C0043F0010313600020E3E72268136823F022
:10161C00040313602268136843F00A031360EDE7B8
:10162C000220D6E790F82130022B06D004238363E6
:10163C00002380F82030012070470268136823F0E3
:10164C000E0313600268136823F001031360036C2C
:10165C00C16B012202FA03F34B6080F821200023B6
:10166C0080F820301846704708B590F82130022BCE
:10167C0003D004238363012008BD0268136823F0A0
:10168C000E0313600268136823F0010313600368F0
:10169C00194A934214D0143293421FD014329342FD
:1016AC001ED0143293421ED0143293421ED01432E8
:1016BC00934202D04FF0807203E04FF4801200E0AE
:1016CC0001220E4B5A60012380F82130002380F850
:1016DC002030436B6BB198470020CDE71022F0E728
:1016EC004FF48072EDE74FF48052EAE74FF480320A
:1016FC00E7E70020C0E700BF0800024000000240FE
:10170C0038B5C36B1A6804682568016C04238B40D8
:10171C00134235D015F0040F32D0236813F0200F8C
:10172C0003D1236823F0040323600368434A9342E4
:10173C0014D01432934218D01432934217D014326E
:10174C00934217D01432934217D01432934202D0E2
:10175C004FF0806203E04FF4800200E00422384B2B
:10176C005A60C36A03B1984738BD4022F7E74FF47B
:10177C008062F4E74FF48042F1E74FF48022EEE709
:10178C0002238B4013423CD015F0020F39D0236852
:10179C0013F0200F06D1236823F00A0323600123E2
:1017AC0080F821300368254A934214D014329342B6
:1017BC001CD0143293421BD0143293421BD01432DF
:1017CC0093421BD01432934202D04FF0007203E0CC
:1017DC004FF4001200E00222194B5A60002380F8EB
:1017EC002030836A002BBFD09847BDE72022F3E757
:1017FC004FF40072F0E74FF40052EDE74FF4003273
:10180C00EAE7082303FA01F11142ADD015F0080FF5
:10181C00AAD0236823F00E032360026CC16B012352
:10182C0003FA02F24A60836380F82130002380F8C7
:10183C002030036B002B97D0984795E708000240A7
:10184C000000024070B582B00024A446A6E0804D92
:10185C00AA4210D007D97F4DAA420CD005F580358D
:10186C00AA4208D013E0A5F58015AA4203D005F5CD
:10187C007025AA4207D18A68002A58D0012A51D073
:10188C004361082403E0A5F58015AA42F3D0BEF10C
:10189C00FF0F4ED80646BEF1FF0F4CD84FEA8C0214
:1018AC0033680F25954023EA050304FA02F213432B
:1018BC0033604B6813F0805F6ED0674B9A6942F0CF
:1018CC0001029A619B6903F001030193019B4FEAAA
:1018DC009C02951C614B53F825600CF003039D0092
:1018EC000F23AB4026EA03065D4B984229D003F543
:1018FC008063984200F08E8003F58063984200F07C
:10190C008B8003F58063984219D004231AE0CC68CD
:10191C00BDE7CC680434BAE7CC680834B7E7CC68C8
:10192C000C34B4E703610824B1E70024AFE70424C6
:10193C00ADE7061DAFE7ACF108029200B0E7032358
:10194C0000E00023AB4033430232444D45F82230D3
:10195C004B6813F4803F61D0424A136843EA0E038C
:10196C0013604B6813F4003F5ED03E4A536843EA61
:10197C000E0353604B6813F4801F5BD0394A936895
:10198C0043EA0E0393604B6813F4001F58D0354A9A
:10199C00D36843EA0E03D3600CF1010C0A6832FAE7
:1019AC000CF353D0012303FA0CF302EA030E33EACF
:1019BC000202F1D14A68122A3FF649AF122A3FF6C9
:1019CC0066AF01A555F822F0831800081B19000812
:1019DC0025190008371900089B1800089B180008E7
:1019EC009B1800089B1800089B1800089B180008FF
:1019FC009B1800089B1800089B1800089B180008EF
:101A0C009B1800089B1800089B1800081F19000859
:101A1C002B190008012395E7022393E7114A136859
:101A2C0023EA0E0313609CE70E4A536823EA0E0365
:101A3C0053609FE70B4A936823EA0E039360A2E777
:101A4C00084AD36823EA0E03D360A5E702B070BD41
:101A5C000000221000003110001002400000014074
:101A6C0000080140000401400AB1016170470904FB
:101A7C000161704738B512F4804F44D00468B4F853
:101A8C0050309BB291F800C003EBCC03023304EB53
:101A9C004303B3F80044C4F309048B69A34228D36D
:101AAC001B1B8B618B697BB9056835F82C309BB29D
:101ABC0023F4804323F0700383F4005343F4004376
:101ACC0043F0800325F82C3012F0400F0ED0026842
:101ADC000D7832F825309BB223F4E04323F07003E9
:101AEC0043F4004343F0C00322F8253024B92046C8
:101AFC0038BD00238B61D5E723460A894969006804
:101B0C0003F0FBFAF3E70468B4F850309BB291F899
:101B1C0000C003EBCC03063304EB4303B3F80044DF
:101B2C00C4F309048B69A3422FD31B1B8B618B69F4
:101B3C007BB9056835F82C309BB223F4804323F035
:101B4C00700383F4005343F4004343F0800325F8FF
:101B5C002C3012F0400F0FD1026891F800C032F80F
:101B6C002C309BB223F4E04323F0700343F4004386
:101B7C0043F0C00322F82C30002CB8D023464A89FD
:101B8C004969006803F0B9FAB1E700238B61CEE72D
:101B9C0070B586B0002800F08580044690F8A93214
:101BAC00EBB1032384F8A932206802F0EFFA254642
:101BBC0055F8106BEC460FCDACE80F002B68CCF849
:101BCC000030231D0ECB304602F0D0FA054658B13A
:101BDC00022384F8A9320125284606B070BD80F88E
:101BEC00A83204F013FADCE70021206802F0D8FADE
:101BFC002B461AE05A1C02EB820104EBC1010120B6
:101C0C00487002EB820104F8313003EB830104EBE2
:101C1C00C101CB8602EB820C04EBCC0C00208CF8BF
:101C2C0003008863C8630864D3B261688B42E1D354
:101C3C0016E005EB850304EBC303002283F869214E
:101C4C0083F8685183F86B21C3F87821C3F87C21A1
:101C5C0005EB850304EBC303C3F880210135EDB21A
:101C6C00A942E6D8254655F8106BEC460FCDACE8EA
:101C7C000F002B68CCF80030231D0ECB304602F041
:101C8C0091FA054620B1022384F8A9320125A3E775
:101C9C00002384F82430012384F8A932206802F050
:101CAC00B7FD99E7012597E738B590F8A832012BD5
:101CBC0011D00446012580F8A852006802F05DFAA4
:101CCC002946204604F0B7FA206802F09FFD002058
:101CDC0084F8A80238BD0220FCE770B505460C4616
:101CEC00164612F0400F00F00D810268B2F8503029
:101CFC009BB2097803EBC103023302EB4303B3F845
:101D0C000024C2F30902A369934252D99B1AA3611E
:101D1C00A369002B6AD16378002B4DD12B68B3F8E3
:101D2C00502092B2134403EB0111B1F804349BB26E
:101D3C0023F4F8439BB2A1F80434B1F804346FEAED
:101D4C0043436FEA53439BB2A1F804342B68627887
:101D5C00002A3ED1B3F8502092B21344227803EB00
:101D6C000213B3F80C2492B222F4F84292B2A3F804
:101D7C000C24B3F80C246FEA42426FEA524292B23E
:101D8C00A3F80C242178284604F074F916F4804F3B
:101D9C0041D02A68217832F821309BB223F4E043F9
:101DAC0023F0700343F4404343F0800322F82130C6
:101DBC0031E00023A361ABE7012BC7D12B68B3F84B
:101DCC00502092B2134403EB01110023A1F8043408
:101DDC00BCE7012AD6D1B3F8502092B21344227832
:101DEC0003EB02130022A3F80C24CBE716F4804F6C
:101DFC000DD0286830F821309BB223F4E04323F057
:101E0C00700343F4404343F0800320F8213094F8EE
:101E1C002430012B12D02A68217832F821309BB261
:101E2C0023F4E04323F0400383F0300343F40043F6
:101E3C0043F0800322F82130002070BD6369134405
:101E4C006361E3691344E361216A236999421FD3F7
:101E5C00C91A21626278002A3FD12A68B2F8501060
:101E6C0089B20A44217802EB0112EBB9B2F80414DE
:101E7C0089B221F4F84189B2A2F80414B2F804141E
:101E8C006FEA41416FEA514189B2A2F8041426E08D
:101E9C0021B9002384F824301346DBE7002384F8AF
:101EAC00243023620B46D5E73E2B09D8590813F092
:101EBC00010F00D00131890289B2A2F804140EE09E
:101ECC00590913F01F0F00D101396FEAC1616FEA94
:101EDC00514189B2A2F8041401E0012A06D09BB248
:101EEC0022896169286802F09BFC94E72A68B2F8A1
:101EFC00501089B20A44217802EB011299B2A2F86F
:101F0C000414ECE70268B2F850309BB2097803EB8A
:101F1C00C103063302EB4303B3F80024C2F30902F6
:101F2C00A369934253D39B1AA361A369002B6BD172
:101F3C006378002B4ED12B68B3F8502092B2134427
:101F4C0003EB0111B1F804349BB223F4F8439BB2B8
:101F5C00A1F80434B1F804346FEA43436FEA5343F5
:101F6C009BB2A1F804342B686278002A3FD1B3F8F5
:101F7C00502092B21344227803EB0213B3F80C24D2
:101F8C0092B222F4F84292B2A3F80C24B3F80C24C7
:101F9C006FEA42426FEA524292B2A3F80C242178C3
:101FAC00284604F067F816F4804F7FF434AF2A68A3
:101FBC00217832F821309BB223F4E04323F07003F4
:101FCC0043F4404343F0800322F8213023E70023FD
:101FDC00A361AAE7012BC6D12B68B3F8502092B2AB
:101FEC00134403EB01110023A1F80434BBE7012ACD
:101FFC00D5D1B3F8502092B21344227803EB0213DC
:10200C000022A3F80C24CAE716F4804F0DD12868DF
:10201C0030F821309BB223F4E04323F0700343F4F7
:10202C00404343F0800320F8213094F82430012BF6
:10203C007FF4F1AE636913446361E3691344E361B4
:10204C00216A236999421FD3C91A21622A686178CF
:10205C0000293ED1B2F8501089B20A44217802EB23
:10206C000112EBB9B2F80C1489B221F4F84189B21F
:10207C00A2F80C14B2F80C146FEA41416FEA51410A
:10208C0089B2A2F80C1426E021B9002384F824307C
:10209C001346DBE70023236284F824300B46D5E794
:1020AC003E2B09D8590813F0010F00D001318902D9
:1020BC0089B2A2F80C140EE0590913F01F0F00D1CD
:1020CC0001396FEAC1616FEA514189B2A2F80C146F
:1020DC0001E0012906D09BB262896169286802F08F
:1020EC009FFB98E6B2F8501089B20A44217802EBB3
:1020FC00011299B2A2F80C14EDE72DE9F041054656
:10210C002868B0F8443013F4004F00F00F82B0F898
:10211C004440A3B214F00F0440F0D88013F0100F19
:10212C0061D003889AB213F4006F40F0938012F4DC
:10213C00004FE5D0038823F070031B051B0D43F003
:10214C00800303802868B0F850309BB295F8682162
:10215C0003EBC203063300EB4303B3F80034C3F3C1
:10216C000903C5F884318BB1D5F87C1171B1B5F880
:10217C006E2102F0C2FFD5F88421D5F87C311344CE
:10218C00C5F87C310021284603F068FF2B681A88BB
:10219C0012F4006FB4D1B3F8502092B21344D5F8B6
:1021AC007821002A79D1B3F80C2492B222F4F842A7
:1021BC0092B2A3F80C24B3F80C246FEA42426FEAF3
:1021CC00524292B2A3F80C242A6813889BB223F4CF
:1021DC00804323F0700383F4405343F4004343F0F3
:1021EC00800313808CE703889BB223F4E14323F034
:1021FC0070036FEA43436FEA53439BB203802A6830
:10220C00B2F850309BB295F8281003EBC10302339F
:10221C0002EB4303B3F80034C3F309036B64EA6BBA
:10222C001344EB630021284603F024FF95F8243077
:10223C00002B3FF465AF2B6C002B7FF461AF95F84E
:10224C0024302A6843F08003A2F84C30002385F830
:10225C00243055E7B0F850309BB295F8682103EB69
:10226C00C203063300EB4303B3F80034C3F3090392
:10227C00C5F88431B5F86E2105F52C7102F03DFFDF
:10228C002A68138823F070031B051B0D43F0800391
:10229C001380284603F0DAFE32E73E2A09D85108AB
:1022AC0012F0010F00D001318A0292B2A3F80C2473
:1022BC008AE7510912F01F0F00D101396FEAC16290
:1022CC006FEA524292B2A3F80C247DE730F8243026
:1022DC009EB213F4004F4FD116F0800F3FF410AFA5
:1022EC00621C02EB820105EBC101286830F8243036
:1022FC009BB223F4E14323F070036FEA43436FEA8C
:10230C0053439BB220F82430CB78032B07D033B146
:10231C00022B40F0068116F4807F40F00281286881
:10232C00B0F850309BB2621C02EB820215F832609E
:10233C0003EBC603023300EB4303B3F80034C3F3DF
:10234C00090304EB840205EBC202126C9A4240F2C0
:10235C00D48004EB840705EBC707D21A3A6404EB6C
:10236C00840205EBC202126C002A40F0CD8031468B
:10237C00284603F07FFEC3E630F8243023F07003C8
:10238C001B051B0D43F0800320F8243004EB840163
:10239C00C90001F5B47105EB010804EB840305EBEE
:1023AC00C30393F87431002B42D12868B0F8503035
:1023BC009BB204EB840205EBC20292F8682103EB9A
:1023CC00C203063300EB4303B3F80074C7F30907E9
:1023DC0017BB04EB840305EBC303D3F884213A4405
:1023EC00C3F88421D3F87C213A44C3F87C21D3F878
:1023FC0080313BB104EB840305EBC303D3F8783194
:10240C009F4275D204EB840305EBC30393F8681168
:10241C00284603F023FE5FE704EB840105EBC101C2
:10242C003B46B1F86E21D1F87C1102F066FED0E784
:10243C0004EB840305EBC30393F86B31022B35D00B
:10244C00296804EB840205EBC20292F8680131F8AA
:10245C0020309BB223F4E04323F0700343F4004399
:10246C0043F0C00321F82030286892F8682130F836
:10247C00223013F4804F20D0B0F850309BB203EBD5
:10248C00C203023300EB4303B3F80074C7F309072C
:10249C00002F9ED004EB840105EBC1013B46B1F843
:1024AC007021D1F87C1102F028FE92E732464146A9
:1024BC002846FFF7DFFA07468BE7B0F850309BB29F
:1024CC0003EBC203063300EB4303B3F80074C7F30A
:1024DC000907002F3FF47DAF04EB840105EBC1012C
:1024EC003B46B1F87221D1F87C1102F006FE70E780
:1024FC004146286802F0A8F9EEE604EB840205EBED
:10250C00C202002717642AE704EB840205EBC2021F
:10251C00D66B1E44D663546C2344536402F094F976
:10252C00EEE532462846FFF7D8FBE9E50020BDE88A
:10253C00F08190F8A832012B0DD010B50446012380
:10254C0080F8A83280F82410006802F059F90020B5
:10255C0084F8A80210BD0220704710B584B0044660
:10256C00006802F057F910F4004F47D1206802F0D0
:10257C0051F910F4806F45D1206802F04BF910F43A
:10258C00804F08D02268B2F844309BB223F48043C9
:10259C009BB2A2F84430206802F03CF910F4005FC2
:1025AC0008D02268B2F844309BB223F400539BB29B
:1025BC00A2F84430206802F02DF910F4805F32D17B
:1025CC00206802F027F910F4006F78D1206802F02F
:1025DC0021F910F4007F40F09D80206802F01AF978
:1025EC0010F4807F08D02268B2F844309BB223F4F8
:1025FC0080739BB2A2F8443004B010BD2046FFF7A4
:10260C007CFDB3E72268B2F844309BB223F48063BC
:10261C009BB2A2F84430204603F03DFD0021204639
:10262C00FFF787FFA8E72268B2F840309BB223F08F
:10263C0004039BB2A2F840302268B2F840309BB23F
:10264C0023F008039BB2A2F84030204603F046FD6D
:10265C002268B2F844309BB223F480539BB2A2F8A8
:10266C004430ADE7226832F8231004AA02EB43028F
:10267C0022F8101C0133DBB2072BF3D92268B2F815
:10268C0040309BB243F00103A2F840302268B2F80C
:10269C0040309BB223F001039BB2A2F84030236878
:1026AC00B3F8442012F4806FF9D0B3F8442092B2FE
:1026BC0022F4806292B2A3F8442000230BE00023A2
:1026CC00DAE7226804A901EB430131F8101C22F867
:1026DC0023100133DBB2072BF3D92268B2F8403058
:1026EC009BB243F00803A2F840302268B2F84430A1
:1026FC009BB223F400639BB2A2F844302268B2F878
:10270C0040309BB243F00403A2F84030204603F063
:10271C00D5FC5BE72268B2F844309BB223F400731B
:10272C009BB2A2F84430204603F0AFFC55E710B53D
:10273C0004468C4611F0800F2AD101F0070000EB03
:10274C008001C90001F5B47E04EB0E0100EB8000A2
:10275C0004EBC0004FF0000E80F869E10CF0070CA0
:10276C0081F800C00A61CB704A780AB1A1F80EC09A
:10277C00022B19D094F8A832012B18D0012384F81D
:10278C00A832206801F01FFD002084F8A80210BDBB
:10279C0001F00700013000EB800104EBC1014FF0A8
:1027AC00010E81F801E0D9E700230B71E2E702206A
:1027BC00EDE710B504460B4611F0800F1FD101F068
:1027CC00070202EB8201C90001F5B471014402EB6E
:1027DC00820200EBC202002082F8690103F00703B9
:1027EC000B7094F8A832012B13D0012384F8A83273
:1027FC00206801F0A4FE002084F8A80210BD01F0AE
:10280C000702013202EB820100EBC101012048708A
:10281C00E4E70220F2E710B501F0070404EB8401B1
:10282C00C90001F5B471014404EB840C00EBCC0C31
:10283C00CCF87C21CCF880310023CCF884318CF896
:10284C0069318CF8684124B9006801F0FDFF002063
:10285C0010BD006801F0F8FFF9E701F0070101EB8A
:10286C00810100EBC101D1F88401704710B501F072
:10287C00070404F1010C0CEB8C0100EBC10104EB1F
:10288C00840E00EBCE0ECEF83C20CEF84030012268
:10289C008EF84C20CEF848300023CEF844304A70E5
:1028AC000CEB8C0C00F83C4024B9006801F0CCFF18
:1028BC00002010BD006801F0C7FFF9E738B501F042
:1028CC0007054268954231D804460B4611F0800F3B
:1028DC001ED101EB8101C90001F5B471014403EB78
:1028EC00830300EBC303002283F8692101238B705F
:1028FC000D7094F8A832012B1AD0012384F8A83259
:10290C00206801F007FF5DB1002084F8A80238BDF3
:10291C006B1C03EB830100EBC10101224A70E5E75C
:10292C0004F52C71206801F079FFEDE70120EEE74A
:10293C000220ECE70B4601F00F014268914230D8BF
:10294C0010B5044613F0800F21D103F0070202EBFF
:10295C008201C90001F5B471014402EB820200EB63
:10296C00C202002082F8690100228A7003F007037A
:10297C000B7094F8A832012B15D0012384F8A832DF
:10298C00206801F0ECFE002084F8A80210BD03F0D2
:10299C000702013202EB820100EBC10101204870F9
:1029AC00E2E7012070470220F0E711F0800F0BD016
:1029BC0001F00701013101EB810100EBC10152B9BA
:1029CC000A73CB800020704701EB8101C90001F52F
:1029DC00B4710144F3E701220A730B811B0C4B8188
:1029EC00F0E7000082B0084B1B68084AA2FB0323E7
:1029FC005B0A00FB03F3019300BF019B5A1E01927B
:102A0C00002BF9D102B0704700000020D34D6210AA
:102A1C00002800F0F18170B582B00446036813F011
:102A2C00010F2CD0994B5B6803F00C03042B1DD0C9
:102A3C00964B5B6803F00C03082B12D06368B3F55C
:102A4C00803F41D0002B55D103F1804303F5043373
:102A5C001A6822F480321A601A6822F480221A60F2
:102A6C0037E08A4B5B6813F4803FE7D0874B1B68D9
:102A7C0013F4003F03D06368002B00F0BF81236880
:102A8C0013F0020F75D0814B5B6813F00C0F5FD005
:102A9C007E4B5B6803F00C03082B54D02369002B8E
:102AAC0000F08A807A4B01221A60FEF7C3FC0546BF
:102ABC00764B1B6813F0020F75D1FEF7BBFC401B65
:102ACC000228F5D903209EE1704A136843F4803341
:102ADC001360636843B3FEF7ADFC05466B4B1B6894
:102AEC0013F4003FCBD1FEF7A5FC401B6428F5D9AD
:102AFC00032088E1B3F5A02F09D0644B1A6822F4A7
:102B0C0080321A601A6822F480221A60E1E703F11D
:102B1C008043A3F53C331A6842F480221A601A6889
:102B2C0042F480321A60D4E7FEF784FC0546574B1A
:102B3C001B6813F4003FA2D0FEF77CFC401B6428FA
:102B4C00F5D903205FE1514B5B6813F4803FA5D1AD
:102B5C004E4B1B6813F0020F03D02369012B40F07E
:102B6C004F814A4A136823F0F803616943EAC103B1
:102B7C001360236813F0080F33D0A369002B5CD0CB
:102B8C00434B0122C3F88024FEF754FC05463F4B0F
:102B9C005B6A13F0020F21D1FEF74CFC401B02289C
:102BAC00F5D903202FE1394A136823F0F803616942
:102BBC0043EAC1031360DCE7354B00221A60FEF7D1
:102BCC0039FC0546314B1B6813F0020FD1D0FEF7D0
:102BDC0031FC401B0228F5D9032014E10120FFF73A
:102BEC0001FF236813F0040F00F09680274BDB697C
:102BFC0013F0805F34D1254BDA6942F08052DA61F0
:102C0C00DB6903F080530193019B0125214B1B6869
:102C1C0013F4807F26D0E368012B3DD0002B53D1D9
:102C2C0003F1804303F504331A6A22F001021A629D
:102C3C001A6A22F004021A6233E0154B0022C3F820
:102C4C008024FEF7F7FB0546104B5B6A13F0020F6E
:102C5C00C7D0FEF7EFFB401B0228F5D90320D2E0CA
:102C6C000025D3E70B4A136843F480731360FEF717
:102C7C00E1FB0646074B1B6813F4807FCBD1FEF7B4
:102C8C00D9FB801B6428F5D90320BCE0001002405E
:102C9C0000004242007000405F4A136A43F0010397
:102CAC001362E36833B3FEF7C5FB06465A4B1B6A47
:102CBC0013F0020F2FD1FEF7BDFB801B41F28833BE
:102CCC009842F3D903209EE0052B09D0524B1A6A87
:102CDC0022F001021A621A6A22F004021A62E0E778
:102CEC004D4B1A6A42F004021A621A6A42F001024F
:102CFC001A62D6E7FEF79EFB0646474B1B6A13F09B
:102D0C00020F08D0FEF796FB801B41F288339842E5
:102D1C00F3D9032077E0E5B9E369002B72D03E4A82
:102D2C00526802F00C02082A56D0022B17D03B4BEB
:102D3C0000221A66FEF77EFB0446374B1B6813F025
:102D4C00007F47D0FEF776FB001B0228F5D9032045
:102D5C0059E0314AD36923F08053D361DCE72F4B20
:102D6C0000221A66FEF766FB05462B4B1B6813F018
:102D7C00007F06D0FEF75EFB401B0228F5D903202E
:102D8C0041E0236AB3F5803F1AD023494B6823F402
:102D9C007413226A606A024313434B601F4B012277
:102DAC001A66FEF747FB04461B4B1B6813F0007FAB
:102DBC000ED1FEF73FFB001B0228F5D9032022E0C1
:102DCC00154A536823F40033A1680B435360DCE7C6
:102DDC00002018E0002016E0012B16D00E4B5B688B
:102DEC0003F48031226A914211D103F47013626AA8
:102DFC0093420ED1002006E001207047012002E032
:102E0C00012000E0002002B070BD0120FBE7012092
:102E1C00F9E70120F7E700BF001002400000424232
:102E2C0086B0174B0FCB0DF1180C0CE90F0040F2CC
:102E3C000123ADF80430134B5B6803F00C02082A35
:102E4C0002D0114806B07047C3F3834218326A446B
:102E5C0012F8100C13F4803F0DD00A4B5B68C3F3CF
:102E6C00404318336B4413F8143C074A02FB00F040
:102E7C00B0FBF3F0E6E7054B03FB00F0E2E700BF25
:102E8C00E87D00080010024000127A0000093D00A5
:102E9C00002800F0A08070B50D460446524B1B680C
:102EAC0003F007038B420BD24F4A136823F007033E
:102EBC000B431360136803F007038B4240F08D80C3
:102ECC00236813F0020F17D013F0040F04D0474AF5
:102EDC00536843F4E0635360236813F0080F04D085
:102EEC00424A536843F460535360404A536823F09A
:102EFC00F003A1680B435360236813F0010F31D02A
:102F0C006368012B20D0022B25D0384A126812F0AE
:102F1C00020F64D035494A6822F0030213434B6018
:102F2C00FEF788FA0646314B5B6803F00C036268C7
:102F3C00B3EB820F16D0FEF77DFA801B41F288337B
:102F4C009842F0D9032045E0284A126812F4003F59
:102F5C00E0D101203EE0254A126812F0007FD9D161
:102F6C00012037E0204B1B6803F00703AB420AD962
:102F7C001D4A136823F007032B431360136803F0F7
:102F8C000703AB422DD1236813F0040F06D0174A68
:102F9C00536823F4E063E1680B435360236813F038
:102FAC00080F07D0114A536823F46053216943EA90
:102FBC00C1035360FFF734FF0C4B5B68C3F303137F
:102FCC000B4AD35CD8400B4B18600B4B1868FEF7C0
:102FDC00EDF9002070BD012070470120FAE70120B7
:102FEC00F8E70120F6E700BF002002400010024085
:102FFC00E87C00080000002008000020014B186845
:10300C00704700BF0000002008B5FFF7F7FF044B26
:10301C005B68C3F30223034AD35CD84008BD00BFEE
:10302C0000100240F87C000808B5FFF7E7FF044BDE
:10303C005B68C3F3C223034AD35CD84008BD00BF0E
:10304C0000100240F87C000870B582B0044603689A
:10305C0013F0010F36D03F4BDB6913F0805F49D181
:10306C003C4BDA6942F08052DA61DB6903F0805341
:10307C000193019B0125384B1B6813F4807F3BD0D7
:10308C00344B1B6A13F4407313D0626802F4407221
:10309C009A420ED02F4A136A23F440702F4901260E
:1030AC00C1F840640026C1F84064106213F0010FAF
:1030BC0036D1284A136A23F4407361680B431362B8
:1030CC00002D3ED1236813F0020F06D0214A53681D
:1030DC0023F44043A1680B435360236813F0100F93
:1030EC0034D01C4A536823F48003E1680B435360CB
:1030FC0000202CE00025BEE7174A136843F48073C8
:10310C001360FEF797F90646134B1B6813F4807F88
:10311C00B6D1FEF78FF9801B6428F5D9032016E091
:10312C00FEF788F906460B4B1B6A13F0020FC0D151
:10313C00FEF780F9801B41F288339842F3D90320C3
:10314C0005E0D36923F08053D361BBE7002002B0C4
:10315C0070BD00BF001002400070004000004242F1
:10316C0070B4036A23F001030362036A4668826940
:10317C0022F073020C6844EA020523F002028B6809
:10318C0013430D4CA04209D00B4CA0420DD046600D
:10319C0085614A684263036270BC704723F0080380
:1031AC00CA68134323F00403EEE726F440764A6919
:1031BC0032438E691643EAE7002C014030B4036AAF
:1031CC0023F480730362036A4568C26922F07302B8
:1031DC000C68224323F400738C6843EA04230F4CDD
:1031EC00A04209D00D4CA0420ED04560C2614A6885
:1031FC00C263036230BC704723F40063CC6843EABB
:10320C00042323F48063EDE725F440554C6945EA2B
:10321C0004158C6945EA0415E7E700BF002C014052
:10322C0030B4036A23F480530362036A4468C269AE
:10323C0022F4E6420D6842EA052223F400538D681D
:10324C0043EA0533074DA84206D04460C2614A6880
:10325C000264036230BC704724F480444D6944EA34
:10326C008514F2E7002C014010B4036A046A24F0C0
:10327C0001040462846924F0F00C4CEA021223F07D
:10328C000A030B438261036210BC704710B4046ADA
:10329C0024F0100404628469036A24F4704C4CEA30
:1032AC00023223F0A00343EA01138261036210BCD3
:1032BC007047836823F070030B4343F0070383606C
:1032CC007047000090F83D30DBB2012B27D1022370
:1032DC0080F83D300268D36843F00103D360036883
:1032EC00114A934210D0B3F1804F0DD0A2F5943215
:1032FC00934209D002F58062934205D01A6842F0DD
:10330C0001021A60002070479A6802F00702062A30
:10331C0007D01A6842F001021A60002070470120A1
:10332C0070470020704700BF002C01407047704769
:10333C0070477047704710B5044603681A6912F05D
:10334C00020F11D0DA6812F0020F0DD06FF00202EA
:10335C001A610123037703689B6913F0030F70D084
:10336C00FFF7E6FF0023237723681A6912F0040F96
:10337C0012D0DA6812F0040F0ED06FF004021A614A
:10338C000223237723689B6913F4407F5FD0204688
:10339C00FFF7CEFF0023237723681A6912F0080F7A
:1033AC0012D0DA6812F0080F0ED06FF008021A6112
:1033BC00042323772368DB6913F0030F4ED02046D8
:1033CC00FFF7B6FF0023237723681A6912F0100F5A
:1033DC0012D0DA6812F0100F0ED06FF010021A61D2
:1033EC00082323772368DB6913F4407F3DD0204604
:1033FC00FFF79EFF0023237723681A6912F0010F51
:10340C0003D0DA6812F0010F36D123681A6912F072
:10341C00800F03D0DA6812F0800F34D123681A6958
:10342C0012F0400F03D0DA6812F0400F32D123684B
:10343C001A6912F0200F03D0DA6812F0200F30D185
:10344C0010BDFFF774FF2046FFF773FF8AE7204695
:10345C00FFF76DFF2046FFF76CFF9BE72046FFF759
:10346C0066FF2046FFF765FFACE72046FFF75FFFDE
:10347C002046FFF75EFFBDE76FF001021A612046A0
:10348C00FCF7D4FEC1E76FF080021A61204600F011
:10349C00ECF9C3E76FF040021A612046FFF74AFFD0
:1034AC00C5E76FF020021A61204600F0DDF9C7E78E
:1034BC0003681B4A90420AD0B0F1804F07D0A2F5A6
:1034CC009432904203D002F58062904203D123F0F3
:1034DC0070034A681343124A90420AD0B0F1804FED
:1034EC0007D0A2F59432904203D002F5806290424C
:1034FC0003D123F44073CA68134323F080034A6951
:10350C00134303608B68C3620B688362044B98425D
:10351C0002D00123436170470B690363F9E700BFD5
:10352C00002C014040B310B5044690F83D30F3B187
:10353C00022384F83D30214651F8040BFFF7B8FF05
:10354C00012384F8463084F83E3084F83F3084F808
:10355C00403084F8413084F8423084F8433084F8A9
:10356C00443084F8453084F83D30002010BD80F89C
:10357C003C30FDF739F9DBE70120704740B310B55B
:10358C00044690F83D30F3B1022384F83D302146D7
:10359C0051F8040BFFF78CFF012384F8463084F8B4
:1035AC003E3084F83F3084F8403084F8413084F861
:1035BC00423084F8433084F8443084F8453084F841
:1035CC003D30002010BD80F83C30FFF7AFFEDBE74C
:1035DC000120704730B4036A23F010030362036ABE
:1035EC004468826922F4E6420D6842EA052223F01F
:1035FC0020038D6843EA05130E4DA84209D00D4DEA
:10360C00A8420ED0446082614A688263036230BC77
:10361C00704723F08003CD6843EA051323F0400381
:10362C00EDE724F440644D6944EA85048D6944EA6D
:10363C008504E7E7002C014038B590F83C30012BAD
:10364C0060D004460D46012380F83C300C2A1AD871
:10365C00DFE802F0071919191D191919311919196F
:10366C0044000068FFF77CFD2268936943F008036F
:10367C0093612268936923F0040393612268936930
:10368C0029690B439361002084F83C0038BD006825
:10369C00FFF7A0FF2268936943F4006393612268EB
:1036AC00936923F48063936122689369296943EADF
:1036BC0001239361E7E70068FFF780FD2268D36977
:1036CC0043F00803D3612268D36923F00403D36168
:1036DC002268D36929690B43D361D4E70068FFF7EB
:1036EC009FFD2268D36943F40063D3612268D369D8
:1036FC0023F48063D3612268D369296943EA0123E7
:10370C00D361C0E70220C1E710B4846824F47F4C75
:10371C0042EA03220A4342EA0C02826010BC704760
:10372C0090F83C30012B66D010B50446012380F88C
:10373C003C30022380F83D300268936823F47F43C9
:10374C0023F0770393600B68602B40D022D8402B7A
:10375C0047D00BD9502B0ED1CA6849680068FFF7C7
:10376C0083FD50212068FFF7A4FD04E0202B0CD032
:10377C0008D9302B09D0012384F83D30002084F87F
:10378C003C0010BD0BB1102BF5D119462068FFF78A
:10379C0090FDF0E7702B0ED0B3F5005FEBD1CB684A
:1037AC004A6889680068FFF7AFFF2268936843F4A2
:1037BC0080439360DFE7CB684A6889680068FFF74D
:1037CC00A3FF2268936843F077039360D3E7CA683A
:1037DC0049680068FFF75AFD60212068FFF769FD12
:1037EC00C9E7CA6849680068FFF73EFD40212068B8
:1037FC00FFF75FFDBFE702207047000090F83C30F8
:10380C00012B2CD010B4012380F83C30022380F81B
:10381C003D3003685A689C6822F0700C0A6842EAD2
:10382C000C025A6003680F4A93420AD0B3F1804FDE
:10383C0007D0A2F59432934203D002F580629342F2
:10384C0004D124F080044A6814439C60012380F85E
:10385C003D30002380F83C30184610BC70470220E5
:10386C00704700BF002C0140704770470268D36856
:10387C0023F0C003D360202380F83D3070470268EA
:10388C00D36823F49073D3600268536923F0010367
:10389C005361036B012B05D0202380F83E300023AD
:1038AC00036370470268D36823F01003D360F3E717
:1038BC0090F83D30DBB2212B01D002207047836899
:1038CC00B3F5805F17D0036A5A1C02621A7803683A
:1038DC005A60C38C9BB2013B9BB2C3844BB9026848
:1038EC00D36823F08003D3600268D36843F04003AD
:1038FC00D360002070470369002BE4D1036A1B8856
:10390C000268C3F308035360036A02330362E0E7FF
:10391C0010B504460268136923F44053C1680B4385
:10392C00136183680269134342691A430168CB68C7
:10393C0023F4B05323F00C031343CB600268536998
:10394C0023F4407381690B4353610268134B9A4211
:10395C0020D0FFF759FB024602EB820202EB8202F7
:10396C0063689B00B2FBF3F20D48A0FB02314909DE
:10397C00642303FB11231B013233A0FB03235B09DC
:10398C0003F0F00202EB011203F00F032168134461
:10399C008B6010BDFFF748FB0246DDE700380140A5
:1039AC001F85EB512DE9F84305460F4616469946FF
:1039BC00DDF820802C68246837EA04030CBF4FF034
:1039CC00010C4FF0000CB4451FD1B8F1FF3FF1D002
:1039DC00B8F1000F05D0FDF72DFDA0EB0900404517
:1039EC00E8D92A68D36823F4D073D3602A68536962
:1039FC0023F001035361202385F83D3085F83E30D8
:103A0C00002385F83C30032000E00020BDE8F8835B
:103A1C0058B310B5044690F83D300BB3242384F80A
:103A2C003D302268D36823F40053D3602046FFF75F
:103A3C006FFF2268136923F4904313612268536962
:103A4C0023F02A0353612268D36843F40053D360F4
:103A5C0000202064202384F83D3084F83E3010BDD3
:103A6C0080F83C30FDF728FBD8E7012070472DE9A2
:103A7C00F04182B01E4690F83D30DBB2202B54D181
:103A8C0004460D469046002953D0002A53D090F896
:103A9C003C30012B51D0012380F83C3000230364CF
:103AAC00212380F83D30FDF7C5FC0746A4F824809F
:103ABC00A4F82680A368B3F5805F05D04FF000080A
:103ACC00002384F83C3012E0236913B14FF0000856
:103ADC00F6E7A8460025F3E738F8023B2268C3F363
:103AEC0008035360E28C92B2013A92B2E284E38C06
:103AFC009BB273B100963B46002280212046FFF713
:103B0C0051FFE0B9002DE7D015F8012B23685A605E
:103B1C00E8E700963B46002240212046FFF742FF93
:103B2C0078B9202384F83D3000E0022002B0BDE8D3
:103B3C00F0810120FAE70120F8E70220F6E70320E4
:103B4C00F4E70320F2E7000038B590F83D30DBB223
:103B5C00202B31D10446002930D0002A30D090F8E7
:103B6C003C30012B2ED0012380F83C300162828442
:103B7C00C28400250564212380F83D30436B124834
:103B8C009862636B1148D862636B11481863636B5E
:103B9C005D6320681346021D606BFDF709FD236809
:103BAC006FF040021A6084F83C502268536943F06D
:103BBC0080035361284600E0022038BD0120FCE759
:103BCC000120FAE70220F8E7473C0008933C000884
:103BDC009F3C000810B5044601684A6990F83D30D6
:103BEC00DBB2212B0AD021684A6902F0400294F81A
:103BFC003E30DBB2222B11D0002010BD02F080022F
:103C0C00002AF0D04B6923F080034B61406B08B164
:103C1C00FDF708FD2046FFF729FEE4E7002AEBD06C
:103C2C004B6923F040034B61A06B08B1FDF7FAFC24
:103C3C002046FFF724FEDFE7704708B50346406ACD
:103C4C001B681B6813F0200F0CD10023C38402687F
:103C5C00536923F0800353610268D36843F0400337
:103C6C00D36008BDFFF7E8FFFBE708B50168CA6839
:103C7C0022F04002CA60202280F83D20FFF7DCFFD2
:103C8C00002008BD704708B5406AFFF7FBFF08BD70
:103C9C00704710B5446A23685A6994F83D30DBB21A
:103CAC00212B10D023685A6902F0400294F83E3060
:103CBC00DBB2222B11D0236C43F01003236420467B
:103CCC00FDF716F810BD02F08002002AEAD000239E
:103CDC00E3842046FFF7CAFDE4E7002AEBD000237B
:103CEC00E3852046FFF7CBFDE5E708B5406A0023E6
:103CFC00C385C384FCF7FCFF08BD704790F83E30C9
:103D0C00DBB2222B60D18368B3F5805F46D0826A28
:103D1C00B3F5805F04D0002B4DD10369002B4AD141
:103D2C0003685B681370836A01338362C38D9BB233
:103D3C00013B9BB2C385002B48D100B583B0026810
:103D4C00D36823F02003D3600268D36823F4807314
:103D5C00D3600268536923F001035361202380F878
:103D6C003E30036B012B2CD1002303630268D36814
:103D7C0023F01003D36003681A6812F0100F06D0FA
:103D8C00002201921A6801925B680193019B818D5C
:103D9C00FFF7B3FF002003B05DF804FB0269002AB3
:103DAC00B5D1826A03685B68C3F308031380836A26
:103DBC0002338362BAE703685B6803F07F03137016
:103DCC00B1E7FCF797FFE5E702207047002070474A
:103DDC0030B583B0044602681368D068516913F09B
:103DEC000F0505D113F0200F02D010F0200F19D1C0
:103DFC002DB111F0010119D110F4907F16D1216B66
:103E0C00012975D013F0800F03D010F0800F40F013
:103E1C00D78013F0400F03D010F0400F40F0D48047
:103E2C0003B030BD2046FFF769FFF9E713F0010F2F
:103E3C0006D010F4807F03D0226C42F00102226481
:103E4C0013F0040F04D019B1226C42F00202226468
:103E5C0013F0020F04D019B1226C42F00402226458
:103E6C0013F0080F07D010F0200F00D119B1226CFD
:103E7C0042F008022264226C002AD1D013F0200FE9
:103E8C0002D010F0200F21D123685B6903F04003AE
:103E9C00226C12F0080F00D123B32046FFF7EFFC81
:103EAC0023685A6912F0400F18D05A6922F0400268
:103EBC005A61A36B73B1464A5A63A06BFDF7D4FBEE
:103ECC000028ADD0A06B436B9847A9E72046FFF7BD
:103EDC0015FFD9E72046FCF70BFFA1E72046FCF7BE
:103EEC0007FF9DE72046FCF703FF0023236497E7B9
:103EFC0013F0100F86D010F0100F83D00023019315
:103F0C001368019353680193019B536913F0400F9D
:103F1C0032D0A16B0B685B689BB2002B80D0A08D5C
:103F2C0098427FF67DAFE3858B69202B08D1A18D5C
:103F3C00E38D9BB2C91A89B22046FFF7DEFE6FE70C
:103F4C00D36823F48073D3602268536923F0010390
:103F5C0053612268536923F040035361202384F892
:103F6C003E30002323632268D36823F01003D36010
:103F7C00A06BFDF757FBDAE7A18DE38D9BB2C91A55
:103F8C0089B2E38D9BB2002B3FF44AAF00293FF47A
:103F9C0047AFD36823F49073D3602268536923F03E
:103FAC0001035361202384F83E30002323632268ED
:103FBC00D36823F01003D3602046FFF79EFE2FE753
:103FCC002046FFF775FC2BE72046FFF74EFE27E750
:103FDC00F73C000808B5406A036B012B02D0FFF7D1
:103FEC0057FE08BD818D4908FFF787FEF9E708B534
:103FFC000346406A1B681B6813F0200F16D1002380
:10400C00C3850268D36823F48073D3600268536954
:10401C0023F0010353610268536923F04003536199
:10402C00202380F83E30036B012B05D0036B012B52
:10403C0008D0FCF75FFE08BD0268D36823F01003BC
:10404C00D360F3E7818DFFF758FEF4E703468162F6
:10405C008285C28500201864222283F83E2083F8D2
:10406C003C001968CA6842F48072CA6019684A69CF
:10407C0042F001024A611A68D36843F02003D3600E
:10408C00704708B590F83E30DBB2202B0DD171B1E2
:10409C007AB190F83C30012B0DD0012380F83C30E4
:1040AC0000230363FFF7D2FF00E0022008BD0120CC
:1040BC00FCE70120FAE70220F8E7000030B583B0F6
:1040CC00044613468162828500250564222280F80D
:1040DC003E20826B14489062A26B1448D062A26B93
:1040EC0013481063A26B556320680A46011DA06B30
:1040FC00FDF75EFA019523681A6801925A680192DD
:10410C00019A84F83C50DA6842F48072DA602268D2
:10411C00536943F0010353612268536943F0400330
:10412C005361284603B030BDFB3F0008E13F000857
:10413C009F3C000808B590F83E30DBB2202B0DD127
:10414C0071B17AB190F83C30012B0DD0012380F87D
:10415C003C3000230363FFF7B1FF00E0022008BDF1
:10416C000120FCE70120FAE70220F8E784B001A85F
:10417C0080E80E00002004B0704703460020A3F82E
:10418C0044004FF43F42A3F840207047B0F8403051
:10419C0023F47C535B045B0CA0F840300020704788
:1041AC000020704784B0844601A880E80E000123EB
:1041BC00ACF840300020ACF84000ACF84400ACF84F
:1041CC00500004B0704710B5034691F800C030F8A9
:1041DC002C2092B222F4EC4222F0700292B2C878F7
:1041EC00032861D8DFE800F0555C0258002048F243
:1041FC00800E42EA0E0223F82C2091F800C033F80E
:10420C002C2092B222F4E04222F070024CEA02021C
:10421C0042EA0E0223F82C200A7B002A40F0C480CC
:10422C004A78002A51D0B3F8502092B21A440C7834
:10423C0002EB0412B1F806C04FEA5C0C4FEA4C0CCE
:10424C00A2F800C40C7833F8242012F0400F0CD0E4
:10425C0033F8242092B222F4E04222F0700242F4AD
:10426C00004242F0C00223F82420CA78012A1DD053
:10427C00097833F8212092B222F4E04222F0400275
:10428C0082F0200242F4004242F0800223F8212006
:10429C006AE042F40072AAE742F4C0620020A6E78A
:1042AC0042F480620020A2E70120A0E7097833F8ED
:1042BC00212092B222F4E04222F0400242F4004269
:1042CC0042F0800223F821204EE0B3F8502092B245
:1042DC001A440C7802EB0412B1F806C04FEA5C0CDD
:1042EC004FEA4C0CA2F808C4B3F8502092B21A440E
:1042FC000C7802EB04120C69BCBBB2F80CC41FFAAC
:10430C008CFC2CF4F84C1FFA8CFCA2F80CC4B2F800
:10431C000CC46FEA4C4C6FEA5C4C1FFA8CFCA2F894
:10432C000CC40C7833F8242012F4804F0CD033F8E2
:10433C00242092B222F4E04222F0700242F4404275
:10434C0042F0800223F82420097833F8212092B21D
:10435C0022F4804222F0700282F4405242F4004275
:10436C0042F0800223F8212010BD3E2C0DD84FEADC
:10437C00540C14F0010F01D00CF1010C4FEA8C2CF1
:10438C001FFA8CFCA2F80CC4CBE74FEA541C14F0B7
:10439C001F0F01D10CF1FF3C6FEACC646FEA54445F
:1043AC00A4B2A2F80C44BCE791F800C033F82C205E
:1043BC0092B222F4E04222F0700242F4014242F046
:1043CC00800223F82C20B3F8502092B21A4491F8B2
:1043DC0000C002EB0C12B1F808C04FEA5C0C4FEABB
:1043EC004C0CA2F800C4B3F8502092B21A4491F8C5
:1043FC0000C002EB0C12B1F80AC04FEA5C0C4FEA99
:10440C004C0CA2F808C44A78002A41D10C7833F835
:10441C00242012F4804F0CD033F8242092B222F4D2
:10442C00E04222F0700242F4404242F0800223F853
:10443C0024200C7833F8242012F0400F0CD033F8E1
:10444C00242092B222F4E04222F0700242F40042A4
:10445C0042F0C00223F8242091F800C033F82C203D
:10446C0092B222F4804222F0700282F4405248F25E
:10447C008004224323F82C20097833F8212092B2AF
:10448C0022F4E04222F04002224323F821206BE781
:10449C000C7833F8242012F4804F0CD033F82420FD
:1044AC0092B222F4E04222F0700242F4404242F016
:1044BC00800223F824200C7833F8242012F0400FCB
:1044CC000CD033F8242092B222F4E04222F0700295
:1044DC0042F4004242F0C00223F82420CA78012A98
:1044EC001ED00C7833F8242092B222F4E04222F051
:1044FC00400282F0200242F4004242F0800223F893
:10450C002420097833F8212092B222F4804222F040
:10451C00700242F4004242F0800223F8212023E78B
:10452C000C7833F8242092B222F4E04222F04002BC
:10453C0042F4004242F0800223F82420E1E70B7B96
:10454C00002B46D14B7813B30A7830F8223013F095
:10455C00400F0CD030F822309BB223F4E04323F010
:10456C00700343F4004343F0C00320F822300A7870
:10457C0030F822309BB223F4E04323F0400343F4A1
:10458C00004343F0800320F82230002070470A7863
:10459C0030F8223013F4804F0CD030F822309BB21C
:1045AC0023F4E04323F0700343F4404343F08003CF
:1045BC0020F822300A7830F822309BB223F4804362
:1045CC0023F0700343F4004343F0800320F82230BF
:1045DC00DBE74B78002B4ED10A7830F8223013F4FD
:1045EC00804F0CD030F822309BB223F4E04323F000
:1045FC00700343F4404343F0800320F822300A78E0
:10460C0030F8223013F0400F0CD030F822309BB22F
:10461C0023F4E04323F0700343F4004343F0C0035E
:10462C0020F822300A7830F822309BB223F4E04391
:10463C0023F0700343F4004343F0C00320F822300E
:10464C000B7830F8232092B222F4804222F07002D0
:10465C0048F2800C42EA0C0220F823200A7830F849
:10466C0022309BB223F4E04323F0400343EA0C03D3
:10467C0020F8223089E70A7830F8223013F4804F82
:10468C000CD030F822309BB223F4E04323F07003BB
:10469C0043F4404343F0800320F822300A7830F88A
:1046AC00223013F0400F0CD030F822309BB223F4A0
:1046BC00E04323F0700343F4004343F0C00320F8BD
:1046CC0022300A7830F822309BB223F4E04323F0F6
:1046DC00700343F4404343F0800320F822300B78FE
:1046EC0030F8232092B222F4E04222F0400248F249
:1046FC00800C42EA0C0220F823200A7830F8223091
:10470C009BB223F4804323F0700343EA0C0320F89C
:10471C0022303AE74B788BB10A7830F822309BB2D2
:10472C0023F4E04323F0400383F0100343F40043ED
:10473C0043F0800320F82230002070470A7830F8CC
:10474C0022309BB223F4804323F0700383F4805314
:10475C0043F4004343F0800320F82230ECE70B7B5A
:10476C00002B4BD14B7833B30A7830F8223013F04E
:10477C00400F0CD030F822309BB223F4E04323F0EE
:10478C00700343F4004343F0C00320F82230CB788D
:10479C00012B33D00A7830F822309BB223F4E0435B
:1047AC0023F0400383F0200343F4004343F08003E1
:1047BC0020F8223022E00A7830F8223013F4804FAF
:1047CC000CD030F822309BB223F4E04323F070037A
:1047DC0043F4404343F0800320F822300A7830F849
:1047EC0022309BB223F4804323F0700383F44053B4
:1047FC0043F4004343F0800320F82230002070473C
:10480C0011B98023A0F84C3000207047002070476D
:10481C0000207047B0F8440080B270470020704709
:10482C0010B45C1C640800EB420202F5806207E0E5
:10483C000B78487843EA002322F8043B0231013C10
:10484C00002CF5D110BC704770B505460C464B7862
:10485C00012B37D00A7B002A40F026838B690A692A
:10486C00934240F204839B1A8B61B5F850309BB293
:10487C002B44217803EB0113002A40F0FC82B3F89F
:10488C000C2492B222F4F84292B2A3F80C24B3F89E
:10489C000C246FEA42426FEA524292B2A3F80C2403
:1048AC00227835F822309BB223F4804323F0700336
:1048BC0083F4405343F4004343F0800325F8223043
:1048CC00002070BD8E690A69964200D91646237B7A
:1048DC00002B39D0E378022B58D0227835F82230CF
:1048EC009BB223F4E04323F0700343F4014343F001
:1048FC00800325F82230236A9B1B2362237835F82A
:10490C00232012F0400F00F026826278002A40F03B
:10491C00CA81B5F8502092B22A4402EB0313002E40
:10492C0040F0A881B3F80C2492B222F4F84292B26F
:10493C00A3F80C24B3F80C246FEA42426FEA5242FB
:10494C0092B2A3F80C24B0E1B6B23346E2886169A6
:10495C002846FFF765FFB5F850309BB22B44227800
:10496C0003EB0213A3F80464227835F822309BB2CF
:10497C0023F4E04323F0400383F0300343F400437B
:10498C0043F0800325F8223000209AE7236A9A42EC
:10499C0080F05281227835F822309BB223F4E04328
:1049AC0023F0700343F4014343F0800325F82230D5
:1049BC00236A9B1B2362237835F8232012F0400FC7
:1049CC0000F09D8062788ABBB5F8502092B22A44E0
:1049DC0002EB03138EB9B3F80C2492B222F4F84212
:1049EC0092B2A3F80C24B3F80C246FEA42426FEA9B
:1049FC00524292B2A3F80C241AE03E2E09D8720847
:104A0C0016F0010F00D00132920292B2A3F80C24DE
:104A1C000EE0720916F01F0F00D1013A6FEAC26264
:104A2C006FEA524292B2A3F80C2401E0012A2BD077
:104A3C00B3B2628961692846FFF7F2FE63693344B9
:104A4C006361236A2269934228D99B1B2362637892
:104A5C00002B40D1B5F850309BB22B44227803EB9D
:104A6C000213FEB9B3F8042492B222F4F84292B2C3
:104A7C00A3F80424B3F804246FEA42426FEA5242CA
:104A8C0092B2A3F8042428E0B5F8502092B22A443C
:104A9C0002EB0313B2B2A3F80C24C9E70022226282
:104AAC001E46D4E73E2E09D8720816F0010F00D02E
:104ABC000132920292B2A3F804240EE0720916F0AD
:104ACC001F0F00D1013A6FEAC2626FEA524292B2F2
:104ADC00A3F8042401E0012B06D0B3B2228961694A
:104AEC002846FFF79DFE3FE7B5F850309BB22B44AC
:104AFC00227803EB0213B2B2A3F80424EDE7627838
:104B0C008ABBB5F8502092B22A4402EB03138EB93B
:104B1C00B3F8042492B222F4F84292B2A3F804241B
:104B2C00B3F804246FEA42426FEA524292B2A3F8FD
:104B3C0004241AE03E2E09D8720816F0010F00D09A
:104B4C000132920292B2A3F804240EE0720916F01C
:104B5C001F0F00D1013A6FEAC2626FEA524292B261
:104B6C00A3F8042401E0012A2BD0B3B22289616995
:104B7C002846FFF755FE636933446361236A226953
:104B8C00934228D99B1B23626378002B40D1B5F844
:104B9C0050309BB22B44227803EB0213FEB9B3F8CE
:104BAC000C2492B222F4F84292B2A3F80C24B3F87B
:104BBC000C246FEA42426FEA524292B2A3F80C24E0
:104BCC0028E0B5F8502092B22A4402EB0313B2B29B
:104BDC00A3F80424C9E7002222621E46D4E73E2E25
:104BEC0009D8720816F0010F00D00132920292B26D
:104BFC00A3F80C240EE0720916F01F0F00D1013A35
:104C0C006FEAC2626FEA524292B2A3F80C2401E03E
:104C1C00012B06D0B3B2628961692846FFF700FE0A
:104C2C00A2E6B5F850309BB22B44227803EB02136A
:104C3C00B2B2A3F80C24EDE7217835F8212092B21A
:104C4C0022F4E24222F0700242F4004242F080026E
:104C5C0025F82120B5F8502092B22A44217802EB95
:104C6C0001129BB2A2F80434228961692846FFF72D
:104C7C00D7FD79E63E2E09D8720816F0010F00D048
:104C8C000132920292B2A3F80C240EE0720916F0D3
:104C9C001F0F00D1013A6FEAC2626FEA524292B220
:104CAC00A3F80C2401E0012A26D0B3B26289616911
:104CBC002846FFF7B5FD636933446361236A2269B3
:104CCC00934223D99B1B2362002E3FF44DAE637895
:104CDC006BBBB5F850309BB22B44227803EB02131C
:104CEC003E2E17D8720816F0010F00D00132920236
:104CFC0092B2A3F804241CE0B5F8502092B22A44D6
:104D0C0002EB0313B2B2A3F80C24CEE7002222620A
:104D1C001E46D9E7720916F01F0F00D1013A6FEA4F
:104D2C00C2626FEA524292B2A3F8042401E0012B52
:104D3C0006D0B3B2228961692846FFF771FD13E6EC
:104D4C00B5F850309BB22B44227803EB0213B2B26D
:104D5C00A3F80424EDE762788ABBB5F8502092B230
:104D6C002A4402EB03138EB9B3F8042492B222F452
:104D7C00F84292B2A3F80424B3F804246FEA424236
:104D8C006FEA524292B2A3F804241AE03E2E09D8DC
:104D9C00720816F0010F00D00132920292B2A3F801
:104DAC0004240EE0720916F01F0F00D1013A6FEACD
:104DBC00C2626FEA524292B2A3F8042401E0012AC3
:104DCC0026D0B3B2228961692846FFF729FD6369B1
:104DDC0033446361236A2269934223D99B1B236268
:104DEC00002E3FF4C1AD63786BBBB5F850309BB26D
:104DFC002B44227803EB02133E2E17D8720816F0C0
:104E0C00010F00D00132920292B2A3F80C241CE0E4
:104E1C00B5F8502092B22A4402EB0313B2B2A3F8B5
:104E2C000424CEE7002222621E46D9E7720916F04E
:104E3C001F0F00D1013A6FEAC2626FEA524292B27E
:104E4C00A3F80C2401E0012B06D0B3B2628961698E
:104E5C002846FFF7E5FC87E5B5F850309BB22B44AC
:104E6C00227803EB0213B2B2A3F80C24EDE7002274
:104E7C008A611A46F9E43E2A09D8510812F0010F4A
:104E8C0000D00131890289B2A3F80C1408E551094C
:104E9C0012F01F0F00D101396FEAC1616FEA514165
:104EAC0089B2A3F80C14FBE4CA78022A45D0012A73
:104EBC0040F0208189692269914240F2D480891A9C
:104ECC00A161D3B9B5F850309BB22B44217803EBD8
:104EDC000113002A40F0CB80B3F8041489B221F4FA
:104EEC00F84189B2A3F80414B3F804146FEA4141F1
:104EFC006FEA514189B2A3F804146378002B40F097
:104F0C00EA80B5F850309BB22B44217803EB0113A7
:104F1C00002A40F0C580B3F80C2492B222F4F84277
:104F2C0092B2A3F80C24B3F80C246FEA42426FEA55
:104F3C00524292B2A3F80C24B2E4CBB9B0F8503080
:104F4C009BB203440A7803EB02130A6972BBB3F8F1
:104F5C00042492B222F4F84292B2A3F80424B3F8D7
:104F6C0004246FEA42426FEA524292B2A3F804243C
:104F7C006378002B4CD1B5F850309BB22B4422787F
:104F8C0003EB0213226952BBB3F80C2492B222F445
:104F9C00F84292B2A3F80C24B3F80C246FEA424204
:104FAC006FEA524292B2A3F80C2433E03E2A09D89D
:104FBC00510812F0010F00D001318A0292B2A3F80D
:104FCC000424D5E7510912F01F0F00D101396FEA03
:104FDC00C1626FEA524292B2A3F80424C8E73E2A97
:104FEC0009D8510812F0010F00D001318A0292B297
:104FFC00A3F80C240EE0510912F01F0F00D1013957
:10500C006FEAC1626FEA524292B2A3F80C2401E03B
:10501C00012B1DD0E369002B3FF442AC227835F80C
:10502C00221044F2400303EA01008B4302D0002813
:10503C007FF436AC35F822309BB223F4E04323F0F6
:10504C00700343F4004343F0C00325F8223027E4F7
:10505C00B5F850309BB22B44227803EB0213228A12
:10506C00A3F80C24D6E70022A2610A4629E73E2ABF
:10507C0009D8510812F0010F00D00131890289B210
:10508C00A3F8041439E7510912F01F0F00D10139AC
:10509C006FEAC1616FEA514189B2A3F804142CE79D
:1050AC003E2A0AD8510812F0010F00D001318A02B1
:1050BC0092B2A3F80C24FFF7F3BB510912F01F0FA7
:1050CC0000D101396FEAC1626FEA524292B2A3F881
:1050DC000C24FFF7E5BB012B7FF4E2ABB5F85030A5
:1050EC009BB22B44217803EB011392B2A3F80C244E
:1050FC00FFF7D6BB0120FFF7E4BB10B45C0800EB54
:10510C00420000F5806007E030F8042B0A70C2F30F
:10511C0007224A700231013C002CF5D113F0010F2B
:10512C0001D003880B7010BC704710B5D0F8B84292
:10513C00D0F8BC325BB194F80002FF2807D09B6812
:10514C0094F8012221469847FF2384F8003200206E
:10515C0010BD00004323038000487047440000202A
:10516C0043230380004870478800002043230380BA
:10517C0000487047D80000200A230380004870477D
:10518C00CC00002038B50446D0F8B85201F048F8ED
:10519C00C5F80C02D4F8B8324BB1D4F8BC32DB6889
:1051AC0005F50371D5F804029847002038BD02209C
:1051BC00FCE710B5D0F8B822D0F8C042F2B101EB40
:1051CC00810300EB8303DB694BB101EB810C04EB36
:1051DC00CC04A46BB3FBF4FC04FB1C3323B1002301
:1051EC00C2F81432002010BD01EB810300EB8303E5
:1051FC000022DA61134601F003F8F3E70220F2E72C
:10520C00F0B583B006460C46D0F8B87200238DF882
:10521C000730ADF804300B7813F0600527D0202D43
:10522C0053D1CA88DAB113F0800F0CD0D0F8BC324D
:10523C009B68394660789847E2883946304600F0DA
:10524C0099FD002544E04B7887F800328B7987F87C
:10525C000132CA88394600F0A2FD002538E0D0F8AA
:10526C00BC329B68002248789847002530E04F7884
:10527C000A2F14D00B2F20D01FB100F06FFA02258B
:10528C0026E090F89C32032B03D000F067FA02253D
:10529C001EE0022201A900F06DFD3D4618E090F8D9
:1052AC009C32032B03D000F059FA022510E00122A6
:1052BC000DF1070100F05EFD0AE090F89C32032B23
:1052CC0006D000F04BFA022502E000F047FA022566
:1052DC00284603B0F0BD38B50446812100F059FFD3
:1052EC000025E5620121204600F053FFC4F86C5103
:1052FC008221204600F04DFF2564D4F8B8324BB122
:10530C00D4F8BC325B689847D4F8B80200F092FF2E
:10531C00C4F8B852002038BD70B50446037CABBB52
:10532C004FF400730222812100F028FF0125E56271
:10533C004FF4007302222946204600F01FFFC4F8E8
:10534C006C51082303228221204600F017FF012311
:10535C0023644FF4077000F069FF0546C4F8B802E7
:10536C0068B3D4F8BC321B6898470023C5F81432D4
:10537C00C5F81832267CCEB94FF40073D5F8042248
:10538C000121204600F044FF304670BD402302222C
:10539C00812100F0F3FE0125E5624023022229461B
:1053AC00204600F0EBFEC4F86C51CAE74023D5F858
:1053BC0004220121204600F02BFF0026E4E7012601
:1053CC00E2E719B1C0F8BC12002070470220704708
:1053DC00D0F8B832C3F80812C3F810220020704776
:1053EC00D0F8B832C3F8041200207047D0F8B822B5
:1053FC00A2B108B5D2F814320BB1012008BD0123BB
:10540C00C2F81432D2F810320363B2F81032D2F868
:10541C000822812100F0F4FE0020EFE70220704703
:10542C00D0F8B82292B108B5037C43B94FF400739D
:10543C00D2F80422012100F0EBFE002008BD40232D
:10544C00D2F80422012100F0E3FEF6E702207047B7
:10545C0098B108B50346D0F8B40210B10020C3F8D7
:10546C00B40209B1C3F8B012012183F89C121A706E
:10547C00184600F039FE002008BD0220704719B113
:10548C00C0F8B412002070470220704708B500F035
:10549C006DFE002008BD08B5D0F8B4322BB11B68E6
:1054AC00984700B908BD0220FCE70220FAE708B5CE
:1054BC00D0F8B4325B689847002008BD38B5044674
:1054CC0000F52A75284600F035F90123C4F894320A
:1054DC00B4F8AE32C4F8983294F8A81201F01F0355
:1054EC00012B0ED0022B11D02BB101F080012046E4
:1054FC0000F057FE03E02946204600F0C9FA0020D0
:10550C0038BD2946204600F0F7FAF8E72946204630
:10551C0000F022FBF3E738B504460D4691BB134669
:10552C00D0F89422032A03D0052A24D0084633E06D
:10553C00D0F86011D0F8642191420DD9891AC0F8C5
:10554C0060118A4206D98AB21946204600F036FC10
:10555C00284621E092B2F7E7D0F8B4321B691BB1B0
:10556C0090F89C22032A04D0204600F02FFC2846F9
:10557C0012E09847F8E70021C0F8941200F011FEF1
:10558C00284609E0D0F8B4329B6933B190F89C22DC
:10559C00032A04D19847002038BD0220FCE70220E2
:1055AC00FAE738B504460D46002953D11346D0F816
:1055BC009422022A0CD0042A00D01AB98021204649
:1055CC0000F0EFFD94F8A032012B3ED0284638BDF8
:1055DC00016A426A91421BD8C169B1FBF2F302FB2A
:1055EC0013132BB98A4203D8D0F8983299421CD3A2
:1055FC00D4F8B432DB681BB194F89C22032A21D076
:10560C008021204600F0CDFD204600F0EAFBD9E7D2
:10561C008A1A026292B2194600F0B9FB00231A46AC
:10562C001946204600F0F4FDCCE70022114600F0AC
:10563C00AEFB0021C4F898120B460A46204600F037
:10564C00E7FDBFE720469847DAE7002384F8A0324D
:10565C002846BCE7D0F8B4325B6933B190F89C2291
:10566C00032A04D198470020B1E70220AFE70220BB
:10567C00ADE770B5044640230022114600F07EFDD4
:10568C000125C4F858514026C4F864613346002201
:10569C008021204600F072FDA561666284F89C5260
:1056AC000023C4F894326360C4F8A432D4F8B8323E
:1056BC002BB1D4F8B4325B68002120469847002007
:1056CC0070BD01740020704790F89C3280F89D32B8
:1056DC00042380F89C320020704790F89C32042BF5
:1056EC0001D00020704790F89D3280F89C32F8E78A
:1056FC0008B590F89C32032B01D0002008BDD0F8DF
:10570C00B432DB69002BF8D09847F6E7034600204B
:10571C0002E00130C0B201331A78002AF9D1704787
:10572C0008B54B88012B00D008BDC0F8A43200F09E
:10573C004DFBF9E70B7803704B7843708B78CA7884
:10574C0003EB022343800B794A7903EB022383801A
:10575C008B79CA7903EB0223C380704710B50446DA
:10576C00802100F01EFD0021204600F01AFD10BD26
:10577C0030B583B005460C460023ADF806304A8898
:10578C00130A013B062B00F2A480DFE803F0041897
:10579C002CA2A2869300D0F8B0321B680DF1060142
:1057AC00007C9847BDF806201AB1E388002B40F026
:1057BC009480E388002B00F09A8003B030BD037C0A
:1057CC0043B9D0F8B4329B6A0DF106009847022316
:1057DC004370E7E7D0F8B432DB6A0DF10600984766
:1057EC0002234370DEE7D2B2052A52D8DFE802F07A
:1057FC0003101D2A3744D0F8B0325B6823B10DF189
:10580C000601007C9847CDE72146FFF7A7FFD4E7B8
:10581C00D0F8B0329B6823B10DF10601007C98479B
:10582C00C0E72146FFF79AFFC7E7D0F8B032DB6834
:10583C0023B10DF10601007C9847B3E72146FFF731
:10584C008DFFBAE7D0F8B0321B6923B10DF1060118
:10585C00007C9847A6E72146FFF780FFADE7D0F81C
:10586C00B0325B6923B10DF10601007C984799E7D2
:10587C002146FFF773FFA0E7D0F8B0329B6923B144
:10588C000DF10601007C98478CE72146FFF766FF77
:10589C0093E72146FFF762FF8FE7037C33B9D0F81B
:1058AC00B4325B6B0DF1060098477BE72146FFF79E
:1058BC0055FF82E7037C43B9D0F8B4321B6B0DF172
:1058CC0006009847072343706CE72146FFF746FF15
:1058DC0073E72146FFF742FF6FE79A4228BF1A464B
:1058EC00ADF806200146284600F044FA61E7284648
:1058FC0000F06CFA61E738B504468B88F3B9CB88B5
:10590C00E3B94B887F2B19D803F07F0590F89C32B4
:10591C00032B0CD080F89E52294600F069FC2046DF
:10592C0000F054FA35B1022384F89C3209E0FFF7F9
:10593C0015FF06E0012384F89C3202E02046FFF7B5
:10594C000DFF38BD38B504460D468978284B1970C3
:10595C0001290ED890F89C32022B0ED0032B21D0AB
:10596C002946FFF7FBFE224B19782046FFF79FFDD7
:10597C0002E02946FFF7F2FE38BD81B141600323F6
:10598C0080F89C32FFF787FD022803D0204600F0F8
:10599C001DFAF1E729462046FFF7E0FEECE700F0A0
:1059AC0015FAE9E789B1436899421DD0D9B2FFF7DE
:1059BC007EFD0F4B197861602046FFF76CFD0228C5
:1059CC000DD0204600F002FAD6E7022380F89C3274
:1059DC004160FFF76CFD204600F0F8F9CCE7294652
:1059EC002046FFF7BBFEC7E700F0F0F9C4E700BFA5
:1059FC00FC16002008B5CB88012B0AD190F89C32FC
:105A0C00022B09D9032B09D10122011D00F0B2F997
:105A1C0001E0FFF7A3FE08BD5BB213B9FFF79EFED2
:105A2C00F9E70146002341F8083F012200F0A2F9F2
:105A3C00F1E708B590F89C32013B022B12D8CB88C9
:105A4C00022B0CD10123C360D0F8A4320BB1032379
:105A5C00C360022200F10C0100F08CF908BDFFF7C5
:105A6C007DFEFBE7FFF77AFEF8E708B590F89C326D
:105A7C00013B022B09D84B88012B00D008BD002319
:105A8C00C0F8A43200F0A2F9F8E7FFF767FEF5E7DB
:105A9C0008B50B7803F06003202B05D0402B03D006
:105AAC0043B1FFF75BFE03E0D0F8B4329B68984734
:105ABC00002008BD4B78092B1BD8DFE803F0111729
:105ACC001A141A08051A0E0BFFF752FEF0E7FFF72F
